{
  "contractName": "Crowdsale",
  "abi": [
    {
      "constant": true,
      "inputs": [],
      "name": "forthWeekBonus",
      "outputs": [
        {
          "name": "",
          "type": "uint256"
        }
      ],
      "payable": false,
      "stateMutability": "view",
      "type": "function"
    },
    {
      "constant": true,
      "inputs": [],
      "name": "reserveSupply",
      "outputs": [
        {
          "name": "",
          "type": "uint256"
        }
      ],
      "payable": false,
      "stateMutability": "view",
      "type": "function"
    },
    {
      "constant": true,
      "inputs": [],
      "name": "preICOBonus",
      "outputs": [
        {
          "name": "",
          "type": "uint256"
        }
      ],
      "payable": false,
      "stateMutability": "view",
      "type": "function"
    },
    {
      "constant": true,
      "inputs": [],
      "name": "checkBurnTokens",
      "outputs": [
        {
          "name": "",
          "type": "bool"
        }
      ],
      "payable": false,
      "stateMutability": "view",
      "type": "function"
    },
    {
      "constant": true,
      "inputs": [],
      "name": "partnershipsSupply",
      "outputs": [
        {
          "name": "",
          "type": "uint256"
        }
      ],
      "payable": false,
      "stateMutability": "view",
      "type": "function"
    },
    {
      "constant": true,
      "inputs": [],
      "name": "upgradeICOSupply",
      "outputs": [
        {
          "name": "",
          "type": "bool"
        }
      ],
      "payable": false,
      "stateMutability": "view",
      "type": "function"
    },
    {
      "constant": true,
      "inputs": [],
      "name": "totalSupply",
      "outputs": [
        {
          "name": "",
          "type": "uint256"
        }
      ],
      "payable": false,
      "stateMutability": "view",
      "type": "function"
    },
    {
      "constant": false,
      "inputs": [
        {
          "name": "_beneficiary",
          "type": "address[]"
        }
      ],
      "name": "enable",
      "outputs": [],
      "payable": false,
      "stateMutability": "nonpayable",
      "type": "function"
    },
    {
      "constant": true,
      "inputs": [],
      "name": "partnershipsTimeLock",
      "outputs": [
        {
          "name": "",
          "type": "uint256"
        }
      ],
      "payable": false,
      "stateMutability": "view",
      "type": "function"
    },
    {
      "constant": true,
      "inputs": [],
      "name": "rate",
      "outputs": [
        {
          "name": "",
          "type": "uint256"
        }
      ],
      "payable": false,
      "stateMutability": "view",
      "type": "function"
    },
    {
      "constant": true,
      "inputs": [],
      "name": "teamSupply",
      "outputs": [
        {
          "name": "",
          "type": "uint256"
        }
      ],
      "payable": false,
      "stateMutability": "view",
      "type": "function"
    },
    {
      "constant": true,
      "inputs": [],
      "name": "minPurchase",
      "outputs": [
        {
          "name": "",
          "type": "uint256"
        }
      ],
      "payable": false,
      "stateMutability": "view",
      "type": "function"
    },
    {
      "constant": true,
      "inputs": [],
      "name": "teamTimeLock",
      "outputs": [
        {
          "name": "",
          "type": "uint256"
        }
      ],
      "payable": false,
      "stateMutability": "view",
      "type": "function"
    },
    {
      "constant": false,
      "inputs": [],
      "name": "unpause",
      "outputs": [],
      "payable": false,
      "stateMutability": "nonpayable",
      "type": "function"
    },
    {
      "constant": true,
      "inputs": [],
      "name": "weiRaised",
      "outputs": [
        {
          "name": "",
          "type": "uint256"
        }
      ],
      "payable": false,
      "stateMutability": "view",
      "type": "function"
    },
    {
      "constant": true,
      "inputs": [],
      "name": "flashSaleEndTime",
      "outputs": [
        {
          "name": "",
          "type": "uint256"
        }
      ],
      "payable": false,
      "stateMutability": "view",
      "type": "function"
    },
    {
      "constant": true,
      "inputs": [],
      "name": "preStartTime",
      "outputs": [
        {
          "name": "",
          "type": "uint256"
        }
      ],
      "payable": false,
      "stateMutability": "view",
      "type": "function"
    },
    {
      "constant": true,
      "inputs": [],
      "name": "icoSupply",
      "outputs": [
        {
          "name": "",
          "type": "uint256"
        }
      ],
      "payable": false,
      "stateMutability": "view",
      "type": "function"
    },
    {
      "constant": true,
      "inputs": [],
      "name": "reserveTimeLock",
      "outputs": [
        {
          "name": "",
          "type": "uint256"
        }
      ],
      "payable": false,
      "stateMutability": "view",
      "type": "function"
    },
    {
      "constant": true,
      "inputs": [],
      "name": "paused",
      "outputs": [
        {
          "name": "",
          "type": "bool"
        }
      ],
      "payable": false,
      "stateMutability": "view",
      "type": "function"
    },
    {
      "constant": true,
      "inputs": [],
      "name": "publicSupply",
      "outputs": [
        {
          "name": "",
          "type": "uint256"
        }
      ],
      "payable": false,
      "stateMutability": "view",
      "type": "function"
    },
    {
      "constant": true,
      "inputs": [],
      "name": "preicoSupply",
      "outputs": [
        {
          "name": "",
          "type": "uint256"
        }
      ],
      "payable": false,
      "stateMutability": "view",
      "type": "function"
    },
    {
      "constant": false,
      "inputs": [],
      "name": "pause",
      "outputs": [],
      "payable": false,
      "stateMutability": "nonpayable",
      "type": "function"
    },
    {
      "constant": true,
      "inputs": [],
      "name": "bountySupply",
      "outputs": [
        {
          "name": "",
          "type": "uint256"
        }
      ],
      "payable": false,
      "stateMutability": "view",
      "type": "function"
    },
    {
      "constant": true,
      "inputs": [],
      "name": "owner",
      "outputs": [
        {
          "name": "",
          "type": "address"
        }
      ],
      "payable": false,
      "stateMutability": "view",
      "type": "function"
    },
    {
      "constant": true,
      "inputs": [],
      "name": "thirdWeekBonus",
      "outputs": [
        {
          "name": "",
          "type": "uint256"
        }
      ],
      "payable": false,
      "stateMutability": "view",
      "type": "function"
    },
    {
      "constant": true,
      "inputs": [],
      "name": "weekThree",
      "outputs": [
        {
          "name": "",
          "type": "uint256"
        }
      ],
      "payable": false,
      "stateMutability": "view",
      "type": "function"
    },
    {
      "constant": true,
      "inputs": [],
      "name": "investorEndTime",
      "outputs": [
        {
          "name": "",
          "type": "uint256"
        }
      ],
      "payable": false,
      "stateMutability": "view",
      "type": "function"
    },
    {
      "constant": true,
      "inputs": [],
      "name": "secondWeekBonus",
      "outputs": [
        {
          "name": "",
          "type": "uint256"
        }
      ],
      "payable": false,
      "stateMutability": "view",
      "type": "function"
    },
    {
      "constant": true,
      "inputs": [],
      "name": "maxPurchase",
      "outputs": [
        {
          "name": "",
          "type": "uint256"
        }
      ],
      "payable": false,
      "stateMutability": "view",
      "type": "function"
    },
    {
      "constant": true,
      "inputs": [],
      "name": "preEndTime",
      "outputs": [
        {
          "name": "",
          "type": "uint256"
        }
      ],
      "payable": false,
      "stateMutability": "view",
      "type": "function"
    },
    {
      "constant": true,
      "inputs": [],
      "name": "firstWeekBonus",
      "outputs": [
        {
          "name": "",
          "type": "uint256"
        }
      ],
      "payable": false,
      "stateMutability": "view",
      "type": "function"
    },
    {
      "constant": true,
      "inputs": [],
      "name": "ICOEndTime",
      "outputs": [
        {
          "name": "",
          "type": "uint256"
        }
      ],
      "payable": false,
      "stateMutability": "view",
      "type": "function"
    },
    {
      "constant": true,
      "inputs": [],
      "name": "weekForth",
      "outputs": [
        {
          "name": "",
          "type": "uint256"
        }
      ],
      "payable": false,
      "stateMutability": "view",
      "type": "function"
    },
    {
      "constant": true,
      "inputs": [],
      "name": "ICOstartTime",
      "outputs": [
        {
          "name": "",
          "type": "uint256"
        }
      ],
      "payable": false,
      "stateMutability": "view",
      "type": "function"
    },
    {
      "constant": true,
      "inputs": [],
      "name": "weekTwo",
      "outputs": [
        {
          "name": "",
          "type": "uint256"
        }
      ],
      "payable": false,
      "stateMutability": "view",
      "type": "function"
    },
    {
      "constant": true,
      "inputs": [],
      "name": "weekOne",
      "outputs": [
        {
          "name": "",
          "type": "uint256"
        }
      ],
      "payable": false,
      "stateMutability": "view",
      "type": "function"
    },
    {
      "constant": true,
      "inputs": [],
      "name": "flashSaleStartTime",
      "outputs": [
        {
          "name": "",
          "type": "uint256"
        }
      ],
      "payable": false,
      "stateMutability": "view",
      "type": "function"
    },
    {
      "constant": true,
      "inputs": [],
      "name": "investorStartTime",
      "outputs": [
        {
          "name": "",
          "type": "uint256"
        }
      ],
      "payable": false,
      "stateMutability": "view",
      "type": "function"
    },
    {
      "constant": false,
      "inputs": [
        {
          "name": "newOwner",
          "type": "address"
        }
      ],
      "name": "transferOwnership",
      "outputs": [],
      "payable": false,
      "stateMutability": "nonpayable",
      "type": "function"
    },
    {
      "constant": true,
      "inputs": [
        {
          "name": "_beneficiary",
          "type": "address"
        }
      ],
      "name": "isListed",
      "outputs": [
        {
          "name": "",
          "type": "bool"
        }
      ],
      "payable": false,
      "stateMutability": "view",
      "type": "function"
    },
    {
      "constant": true,
      "inputs": [],
      "name": "token",
      "outputs": [
        {
          "name": "",
          "type": "address"
        }
      ],
      "payable": false,
      "stateMutability": "view",
      "type": "function"
    },
    {
      "constant": true,
      "inputs": [],
      "name": "flashSaleBonus",
      "outputs": [
        {
          "name": "",
          "type": "uint256"
        }
      ],
      "payable": false,
      "stateMutability": "view",
      "type": "function"
    },
    {
      "constant": false,
      "inputs": [
        {
          "name": "_beneficiary",
          "type": "address[]"
        }
      ],
      "name": "disable",
      "outputs": [],
      "payable": false,
      "stateMutability": "nonpayable",
      "type": "function"
    },
    {
      "inputs": [
        {
          "name": "_startTime",
          "type": "uint256"
        },
        {
          "name": "_endTime",
          "type": "uint256"
        },
        {
          "name": "_rate",
          "type": "uint256"
        },
        {
          "name": "_wallet",
          "type": "address"
        }
      ],
      "payable": false,
      "stateMutability": "nonpayable",
      "type": "constructor"
    },
    {
      "payable": true,
      "stateMutability": "payable",
      "type": "fallback"
    },
    {
      "anonymous": false,
      "inputs": [
        {
          "indexed": true,
          "name": "purchaser",
          "type": "address"
        },
        {
          "indexed": true,
          "name": "beneficiary",
          "type": "address"
        },
        {
          "indexed": false,
          "name": "value",
          "type": "uint256"
        },
        {
          "indexed": false,
          "name": "amount",
          "type": "uint256"
        }
      ],
      "name": "TokenPurchase",
      "type": "event"
    },
    {
      "anonymous": false,
      "inputs": [
        {
          "indexed": false,
          "name": "beneficiary",
          "type": "address[]"
        }
      ],
      "name": "AddressAdded",
      "type": "event"
    },
    {
      "anonymous": false,
      "inputs": [
        {
          "indexed": false,
          "name": "beneficiary",
          "type": "address[]"
        }
      ],
      "name": "AddressRemoved",
      "type": "event"
    },
    {
      "anonymous": false,
      "inputs": [],
      "name": "Pause",
      "type": "event"
    },
    {
      "anonymous": false,
      "inputs": [],
      "name": "Unpause",
      "type": "event"
    },
    {
      "anonymous": false,
      "inputs": [
        {
          "indexed": true,
          "name": "previousOwner",
          "type": "address"
        },
        {
          "indexed": true,
          "name": "newOwner",
          "type": "address"
        }
      ],
      "name": "OwnershipTransferred",
      "type": "event"
    },
    {
      "constant": false,
      "inputs": [
        {
          "name": "beneficiary",
          "type": "address"
        }
      ],
      "name": "buyTokens",
      "outputs": [],
      "payable": true,
      "stateMutability": "payable",
      "type": "function"
    },
    {
      "constant": true,
      "inputs": [],
      "name": "hasEnded",
      "outputs": [
        {
          "name": "",
          "type": "bool"
        }
      ],
      "payable": false,
      "stateMutability": "view",
      "type": "function"
    },
    {
      "constant": false,
      "inputs": [],
      "name": "burnToken",
      "outputs": [
        {
          "name": "",
          "type": "bool"
        }
      ],
      "payable": false,
      "stateMutability": "nonpayable",
      "type": "function"
    },
    {
      "constant": false,
      "inputs": [
        {
          "name": "_preStartTime",
          "type": "uint256"
        },
        {
          "name": "_preEndTime",
          "type": "uint256"
        },
        {
          "name": "_ICOstartTime",
          "type": "uint256"
        },
        {
          "name": "_ICOEndTime",
          "type": "uint256"
        }
      ],
      "name": "updateDates",
      "outputs": [],
      "payable": false,
      "stateMutability": "nonpayable",
      "type": "function"
    },
    {
      "constant": false,
      "inputs": [
        {
          "name": "_flashSaleStartTime",
          "type": "uint256"
        },
        {
          "name": "_flashSaleEndTime",
          "type": "uint256"
        },
        {
          "name": "_flashSaleBonus",
          "type": "uint256"
        }
      ],
      "name": "flashSale",
      "outputs": [],
      "payable": false,
      "stateMutability": "nonpayable",
      "type": "function"
    },
    {
      "constant": false,
      "inputs": [
        {
          "name": "_investorStartTime",
          "type": "uint256"
        },
        {
          "name": "_investorEndTime",
          "type": "uint256"
        }
      ],
      "name": "updateInvestorDates",
      "outputs": [],
      "payable": false,
      "stateMutability": "nonpayable",
      "type": "function"
    },
    {
      "constant": false,
      "inputs": [
        {
          "name": "_minPurchase",
          "type": "uint256"
        },
        {
          "name": "_maxPurchase",
          "type": "uint256"
        }
      ],
      "name": "updateMinMaxInvestment",
      "outputs": [],
      "payable": false,
      "stateMutability": "nonpayable",
      "type": "function"
    },
    {
      "constant": false,
      "inputs": [
        {
          "name": "recipients",
          "type": "address[]"
        },
        {
          "name": "values",
          "type": "uint256[]"
        }
      ],
      "name": "transferFunds",
      "outputs": [],
      "payable": false,
      "stateMutability": "nonpayable",
      "type": "function"
    },
    {
      "constant": false,
      "inputs": [
        {
          "name": "recipients",
          "type": "address[]"
        },
        {
          "name": "values",
          "type": "uint256[]"
        }
      ],
      "name": "bountyFunds",
      "outputs": [],
      "payable": false,
      "stateMutability": "nonpayable",
      "type": "function"
    },
    {
      "constant": false,
      "inputs": [
        {
          "name": "recipients",
          "type": "address[]"
        },
        {
          "name": "values",
          "type": "uint256[]"
        }
      ],
      "name": "transferPartnershipsTokens",
      "outputs": [],
      "payable": false,
      "stateMutability": "nonpayable",
      "type": "function"
    },
    {
      "constant": false,
      "inputs": [
        {
          "name": "recipients",
          "type": "address[]"
        },
        {
          "name": "values",
          "type": "uint256[]"
        }
      ],
      "name": "transferReserveTokens",
      "outputs": [],
      "payable": false,
      "stateMutability": "nonpayable",
      "type": "function"
    },
    {
      "constant": false,
      "inputs": [
        {
          "name": "recipients",
          "type": "address[]"
        },
        {
          "name": "values",
          "type": "uint256[]"
        }
      ],
      "name": "transferTeamTokens",
      "outputs": [],
      "payable": false,
      "stateMutability": "nonpayable",
      "type": "function"
    },
    {
      "constant": true,
      "inputs": [],
      "name": "getTokenAddress",
      "outputs": [
        {
          "name": "",
          "type": "address"
        }
      ],
      "payable": false,
      "stateMutability": "view",
      "type": "function"
    }
  ],
  "bytecode": "0x608060405260008060146101000a81548160ff0219169083151502179055506b0813f3978f89409844000000601a556200007162000055601a5460646200070e6401000000000262002f8c176401000000009004565b601e6200072a6401000000000262002e5e176401000000009004565b601b55620000b76200009b601a5460646200070e6401000000000262002f8c176401000000009004565b601e6200072a6401000000000262002e5e176401000000009004565b601c55620000de601b54601c54620007696401000000000262002e99176401000000009004565b601d556200012462000108601a5460646200070e6401000000000262002f8c176401000000009004565b60056200072a6401000000000262002e5e176401000000009004565b601e556200016a6200014e601a5460646200070e6401000000000262002f8c176401000000009004565b60146200072a6401000000000262002e5e176401000000009004565b601f55620001b062000194601a5460646200070e6401000000000262002f8c176401000000009004565b60056200072a6401000000000262002e5e176401000000009004565b602055620001f6620001da601a5460646200070e6401000000000262002f8c176401000000009004565b600a6200072a6401000000000262002e5e176401000000009004565b6021553480156200020657600080fd5b5060405160808062004ea1833981018060405260808110156200022857600080fd5b8101908080519060200190929190805190602001909291908051906020019092919080519060200190929190505050336000806101000a81548173ffffffffffffffffffffffffffffffffffffffff021916908373ffffffffffffffffffffffffffffffffffffffff160217905550620002b8600133620007886401000000000262002ed0176401000000009004565b428410151515620002c857600080fd5b838310151515620002d857600080fd5b600082111515620002e857600080fd5b600073ffffffffffffffffffffffffffffffffffffffff168173ffffffffffffffffffffffffffffffffffffffff16141515156200032557600080fd5b6200033e620007e6640100000000026401000000009004565b600260006101000a81548173ffffffffffffffffffffffffffffffffffffffff021916908373ffffffffffffffffffffffffffffffffffffffff160217905550600060058190555060006006819055508360078190555062278d006007540160088190555061012c6008540160098190555082600a819055508160148190555080601360006101000a81548173ffffffffffffffffffffffffffffffffffffffff021916908373ffffffffffffffffffffffffffffffffffffffff160217905550620004426200042660145460146200072a6401000000000262002e5e176401000000009004565b60646200070e6401000000000262002f8c176401000000009004565b600b819055506200048b6200046f601454600f6200072a6401000000000262002e5e176401000000009004565b60646200070e6401000000000262002f8c176401000000009004565b600c81905550620004d4620004b8601454600a6200072a6401000000000262002e5e176401000000009004565b60646200070e6401000000000262002f8c176401000000009004565b600d819055506200051d6200050160145460056200072a6401000000000262002e5e176401000000009004565b60646200070e6401000000000262002f8c176401000000009004565b600e81905550620005666200054a60145460016200072a6401000000000262002e5e176401000000009004565b60646200070e6401000000000262002f8c176401000000009004565b600f8190555062000591600954621baf80620007696401000000000262002e99176401000000009004565b601681905550620005bc601654621baf80620007696401000000000262002e99176401000000009004565b601781905550620005e7601754621baf80620007696401000000000262002e99176401000000009004565b60188190555062000612601854621baf80620007696401000000000262002e99176401000000009004565b6019819055506200063d600a5462ed4e00620007696401000000000262002e99176401000000009004565b60228190555062000668600a5462ed4e00620007696401000000000262002e99176401000000009004565b6024819055506200069160075460b4620007696401000000000262002e99176401000000009004565b6023819055506000601081905550600060118190555060006012819055506000602560006101000a81548160ff0219169083151502179055506000602560016101000a81548160ff021916908315150217905550670de0b6b3a76400006003819055506802b5e3af16b18800006004819055505050505062000826565b60008082848115156200071d57fe5b0490508091505092915050565b6000808314156200073f576000905062000763565b600082840290508284828115156200075357fe5b041415156200075e57fe5b809150505b92915050565b60008082840190508381101515156200077e57fe5b8091505092915050565b60018260000160008373ffffffffffffffffffffffffffffffffffffffff1673ffffffffffffffffffffffffffffffffffffffff16815260200190815260200160002060006101000a81548160ff0219169083151502179055505050565b6000620007f262000815565b604051809103906000f0801580156200080f573d6000803e3d6000fd5b50905090565b604051611698806200380983390190565b612fd380620008366000396000f3fe6080604052600436106102a9576000357c0100000000000000000000000000000000000000000000000000000000900463ffffffff16806302622cd6146102b457806303d41eb6146102df57806306f7ec971461030a5780630c92b17b1461033557806310fe9ae81461036457806312484de9146103bb57806317f5486d146103e657806318160ddd146104155780631b75738a146104405780632a714268146104c65780632c4e722e146104f15780632cfac6ec1461051c57806333b5b62e1461054757806338dacaab1461057257806339c65ca61461059d5780633f4ba83a146105f65780634042b66f1461060d5780634603ae381461063857806347cb14c5146107135780634dc412101461073e5780634e8127f61461076957806351579da214610794578063598f6dec1461086f5780635c975abb1461089a5780635e84d723146108c95780636f1ca0c2146108f457806378e0a0bd1461091f5780638456cb591461096e57806386852fd7146109855780638da5cb5b146109b0578063907af8ad14610a0757806391125fb714610ae257806394a94db314610b0d578063956fd99114610b38578063973fe7ef14610b63578063977b055b14610b8e5780639a47141614610bb9578063a12c256414610c94578063a1b258c114610cbf578063a242f04914610cea578063a2ec295714610d15578063ab4b392914610d5a578063ae707b7a14610d9f578063c1da392314610dca578063c941f81a14610df5578063d2d6d49214610e20578063d374af4914610e4b578063e4d6f28914610e76578063ec8ac4d814610f51578063ecb70fb714610f95578063f194337414610fc4578063f2fde38b14610fef578063f794062e14611040578063faa0a264146110a9578063fc0c546a146110d8578063fcdabcbe1461112f578063fd30929a1461115a575b6102b2336111e0565b005b3480156102c057600080fd5b506102c96117ad565b6040518082815260200191505060405180910390f35b3480156102eb57600080fd5b506102f46117b3565b6040518082815260200191505060405180910390f35b34801561031657600080fd5b5061031f6117b9565b6040518082815260200191505060405180910390f35b34801561034157600080fd5b5061034a6117bf565b604051808215151515815260200191505060405180910390f35b34801561037057600080fd5b506103796117d2565b604051808273ffffffffffffffffffffffffffffffffffffffff1673ffffffffffffffffffffffffffffffffffffffff16815260200191505060405180910390f35b3480156103c757600080fd5b506103d0611857565b6040518082815260200191505060405180910390f35b3480156103f257600080fd5b506103fb61185d565b604051808215151515815260200191505060405180910390f35b34801561042157600080fd5b5061042a611870565b6040518082815260200191505060405180910390f35b34801561044c57600080fd5b506104c46004803603602081101561046357600080fd5b810190808035906020019064010000000081111561048057600080fd5b82018360208201111561049257600080fd5b803590602001918460208302840111640100000000831117156104b457600080fd5b9091929391929390505050611876565b005b3480156104d257600080fd5b506104db61198f565b6040518082815260200191505060405180910390f35b3480156104fd57600080fd5b50610506611995565b6040518082815260200191505060405180910390f35b34801561052857600080fd5b5061053161199b565b6040518082815260200191505060405180910390f35b34801561055357600080fd5b5061055c6119a1565b6040518082815260200191505060405180910390f35b34801561057e57600080fd5b506105876119a7565b6040518082815260200191505060405180910390f35b3480156105a957600080fd5b506105f4600480360360808110156105c057600080fd5b81019080803590602001909291908035906020019092919080359060200190929190803590602001909291905050506119ad565b005b34801561060257600080fd5b5061060b611adc565b005b34801561061957600080fd5b50610622611b9a565b6040518082815260200191505060405180910390f35b34801561064457600080fd5b506107116004803603604081101561065b57600080fd5b810190808035906020019064010000000081111561067857600080fd5b82018360208201111561068a57600080fd5b803590602001918460208302840111640100000000831117156106ac57600080fd5b9091929391929390803590602001906401000000008111156106cd57600080fd5b8201836020820111156106df57600080fd5b8035906020019184602083028401116401000000008311171561070157600080fd5b9091929391929390505050611ba0565b005b34801561071f57600080fd5b50610728611dc6565b6040518082815260200191505060405180910390f35b34801561074a57600080fd5b50610753611dcc565b6040518082815260200191505060405180910390f35b34801561077557600080fd5b5061077e611dd2565b6040518082815260200191505060405180910390f35b3480156107a057600080fd5b5061086d600480360360408110156107b757600080fd5b81019080803590602001906401000000008111156107d457600080fd5b8201836020820111156107e657600080fd5b8035906020019184602083028401116401000000008311171561080857600080fd5b90919293919293908035906020019064010000000081111561082957600080fd5b82018360208201111561083b57600080fd5b8035906020019184602083028401116401000000008311171561085d57600080fd5b9091929391929390505050611dd8565b005b34801561087b57600080fd5b5061088461200e565b6040518082815260200191505060405180910390f35b3480156108a657600080fd5b506108af612014565b604051808215151515815260200191505060405180910390f35b3480156108d557600080fd5b506108de612027565b6040518082815260200191505060405180910390f35b34801561090057600080fd5b5061090961202d565b6040518082815260200191505060405180910390f35b34801561092b57600080fd5b5061096c6004803603606081101561094257600080fd5b81019080803590602001909291908035906020019092919080359060200190929190505050612033565b005b34801561097a57600080fd5b506109836120a8565b005b34801561099157600080fd5b5061099a612168565b6040518082815260200191505060405180910390f35b3480156109bc57600080fd5b506109c561216e565b604051808273ffffffffffffffffffffffffffffffffffffffff1673ffffffffffffffffffffffffffffffffffffffff16815260200191505060405180910390f35b348015610a1357600080fd5b50610ae060048036036040811015610a2a57600080fd5b8101908080359060200190640100000000811115610a4757600080fd5b820183602082011115610a5957600080fd5b80359060200191846020830284011164010000000083111715610a7b57600080fd5b909192939192939080359060200190640100000000811115610a9c57600080fd5b820183602082011115610aae57600080fd5b80359060200191846020830284011164010000000083111715610ad057600080fd5b9091929391929390505050612193565b005b348015610aee57600080fd5b50610af76123c9565b6040518082815260200191505060405180910390f35b348015610b1957600080fd5b50610b226123cf565b6040518082815260200191505060405180910390f35b348015610b4457600080fd5b50610b4d6123d5565b6040518082815260200191505060405180910390f35b348015610b6f57600080fd5b50610b786123db565b6040518082815260200191505060405180910390f35b348015610b9a57600080fd5b50610ba36123e1565b6040518082815260200191505060405180910390f35b348015610bc557600080fd5b50610c9260048036036040811015610bdc57600080fd5b8101908080359060200190640100000000811115610bf957600080fd5b820183602082011115610c0b57600080fd5b80359060200191846020830284011164010000000083111715610c2d57600080fd5b909192939192939080359060200190640100000000811115610c4e57600080fd5b820183602082011115610c6057600080fd5b80359060200191846020830284011164010000000083111715610c8257600080fd5b90919293919293905050506123e7565b005b348015610ca057600080fd5b50610ca961260d565b6040518082815260200191505060405180910390f35b348015610ccb57600080fd5b50610cd4612613565b6040518082815260200191505060405180910390f35b348015610cf657600080fd5b50610cff612619565b6040518082815260200191505060405180910390f35b348015610d2157600080fd5b50610d5860048036036040811015610d3857600080fd5b81019080803590602001909291908035906020019092919050505061261f565b005b348015610d6657600080fd5b50610d9d60048036036040811015610d7d57600080fd5b81019080803590602001909291908035906020019092919050505061268c565b005b348015610dab57600080fd5b50610db4612716565b6040518082815260200191505060405180910390f35b348015610dd657600080fd5b50610ddf61271c565b6040518082815260200191505060405180910390f35b348015610e0157600080fd5b50610e0a612722565b6040518082815260200191505060405180910390f35b348015610e2c57600080fd5b50610e35612728565b6040518082815260200191505060405180910390f35b348015610e5757600080fd5b50610e6061272e565b6040518082815260200191505060405180910390f35b348015610e8257600080fd5b50610f4f60048036036040811015610e9957600080fd5b8101908080359060200190640100000000811115610eb657600080fd5b820183602082011115610ec857600080fd5b80359060200191846020830284011164010000000083111715610eea57600080fd5b909192939192939080359060200190640100000000811115610f0b57600080fd5b820183602082011115610f1d57600080fd5b80359060200191846020830284011164010000000083111715610f3f57600080fd5b9091929391929390505050612734565b005b610f9360048036036020811015610f6757600080fd5b81019080803573ffffffffffffffffffffffffffffffffffffffff1690602001909291905050506111e0565b005b348015610fa157600080fd5b50610faa61296a565b604051808215151515815260200191505060405180910390f35b348015610fd057600080fd5b50610fd9612976565b6040518082815260200191505060405180910390f35b348015610ffb57600080fd5b5061103e6004803603602081101561101257600080fd5b81019080803573ffffffffffffffffffffffffffffffffffffffff16906020019092919050505061297c565b005b34801561104c57600080fd5b5061108f6004803603602081101561106357600080fd5b81019080803573ffffffffffffffffffffffffffffffffffffffff169060200190929190505050612ad1565b604051808215151515815260200191505060405180910390f35b3480156110b557600080fd5b506110be612ae5565b604051808215151515815260200191505060405180910390f35b3480156110e457600080fd5b506110ed612c8e565b604051808273ffffffffffffffffffffffffffffffffffffffff1673ffffffffffffffffffffffffffffffffffffffff16815260200191505060405180910390f35b34801561113b57600080fd5b50611144612cb4565b6040518082815260200191505060405180910390f35b34801561116657600080fd5b506111de6004803603602081101561117d57600080fd5b810190808035906020019064010000000081111561119a57600080fd5b8201836020820111156111ac57600080fd5b803590602001918460208302840111640100000000831117156111ce57600080fd5b9091929391929390505050612cba565b005b600060149054906101000a900460ff161515156111fc57600080fd5b6001151561120b600133612dd3565b151514151561121957600080fd5b600073ffffffffffffffffffffffffffffffffffffffff168173ffffffffffffffffffffffffffffffffffffffff161415151561125557600080fd5b61125d612e2c565b151561126857600080fd5b600034905060004290506000809050600354831015801561128b57506004548311155b151561129657600080fd5b60055482101580156112a9575060065482105b80156112b6575060075482105b15611316576112d9816112d460145486612e5e90919063ffffffff16565b612e99565b90506112f081601c54612eb790919063ffffffff16565b601c8190555061130b81601d54612eb790919063ffffffff16565b601d8190555061161e565b6010548210158015611329575060115482105b156113a95761134c8161134760125486612e5e90919063ffffffff16565b612e99565b905061136c8161136760145486612e5e90919063ffffffff16565b612e99565b905061138381601c54612eb790919063ffffffff16565b601c8190555061139e81601d54612eb790919063ffffffff16565b601d8190555061161d565b60075482101580156113bc575060085482105b1561145e576000601b541115156113d257600080fd5b6113f0816113eb600b5486612e5e90919063ffffffff16565b612e99565b90506114108161140b60145486612e5e90919063ffffffff16565b612e99565b905080601b541015151561142357600080fd5b61143881601b54612eb790919063ffffffff16565b601b8190555061145381601d54612eb790919063ffffffff16565b601d8190555061161c565b60095482101580156114725750600a548211155b156115fe57602560019054906101000a900460ff1615156114bd5761149b601c54601b54612e99565b601c819055506001602560016101000a81548160ff0219169083151502179055505b601654821115156114ed576114e6816114e1600c5486612e5e90919063ffffffff16565b612e99565b90506115a3565b6017548211158015611500575060165482115b1561152a576115238161151e600d5486612e5e90919063ffffffff16565b612e99565b90506115a2565b601854821115801561153d575060175482115b15611567576115608161155b600e5486612e5e90919063ffffffff16565b612e99565b90506115a1565b601954821115801561157a575060185482115b156115a05761159d81611598600f5486612e5e90919063ffffffff16565b612e99565b90505b5b5b5b6115c1816115bc60145486612e5e90919063ffffffff16565b612e99565b90506115d881601c54612eb790919063ffffffff16565b601c819055506115f381601d54612eb790919063ffffffff16565b601d8190555061161b565b60085482118015611610575060095482105b1561161a57600080fd5b5b5b5b5b61163383601554612e9990919063ffffffff16565b601581905550600260009054906101000a900473ffffffffffffffffffffffffffffffffffffffff1673ffffffffffffffffffffffffffffffffffffffff166340c10f1985836040518363ffffffff167c0100000000000000000000000000000000000000000000000000000000028152600401808373ffffffffffffffffffffffffffffffffffffffff1673ffffffffffffffffffffffffffffffffffffffff16815260200182815260200192505050602060405180830381600087803b1580156116fe57600080fd5b505af1158015611712573d6000803e3d6000fd5b505050506040513d602081101561172857600080fd5b8101908080519060200190929190505050508373ffffffffffffffffffffffffffffffffffffffff163373ffffffffffffffffffffffffffffffffffffffff167f623b3804fa71d67900d064613da8f94b9617215ee90799290593e1745087ad188584604051808381526020018281526020019250505060405180910390a350505050565b600f5481565b60205481565b600b5481565b602560009054906101000a900460ff1681565b60008060009054906101000a900473ffffffffffffffffffffffffffffffffffffffff1673ffffffffffffffffffffffffffffffffffffffff163373ffffffffffffffffffffffffffffffffffffffff1614151561182f57600080fd5b600260009054906101000a900473ffffffffffffffffffffffffffffffffffffffff16905090565b60215481565b602560019054906101000a900460ff1681565b601a5481565b6000809054906101000a900473ffffffffffffffffffffffffffffffffffffffff1673ffffffffffffffffffffffffffffffffffffffff163373ffffffffffffffffffffffffffffffffffffffff161415156118d157600080fd5b60008090505b8282905081101561192457611917600184848481811015156118f557fe5b9050602002013573ffffffffffffffffffffffffffffffffffffffff16612ed0565b80806001019150506118d7565b507f8eb4b62a1798809c1cb1593bc979eb7708ee201600022292993f69de3397e5c7828260405180806020018281038252848482818152602001925060200280828437600081840152601f19601f820116905080830192505050935050505060405180910390a15050565b60235481565b60145481565b601f5481565b60035481565b60225481565b6000809054906101000a900473ffffffffffffffffffffffffffffffffffffffff1673ffffffffffffffffffffffffffffffffffffffff163373ffffffffffffffffffffffffffffffffffffffff16141515611a0857600080fd5b8342108015611a18575042600754115b15611a2557836007819055505b600754831115611a3757826008819055505b8160098190555080600a81905550611a54600954621baf80612e99565b601681905550611a69601654621baf80612e99565b601781905550611a7e601754621baf80612e99565b601881905550611a93601854621baf80612e99565b601981905550611aa8600a5462ed4e00612e99565b602281905550611abd600a5462ed4e00612e99565b602481905550611ad060075460b4612e99565b60238190555050505050565b6000809054906101000a900473ffffffffffffffffffffffffffffffffffffffff1673ffffffffffffffffffffffffffffffffffffffff163373ffffffffffffffffffffffffffffffffffffffff16141515611b3757600080fd5b600060149054906101000a900460ff161515611b5257600080fd5b60008060146101000a81548160ff0219169083151502179055507f7805862f689e2f13df9f062ff482ad3ad112aca9e0847911ed832e158c525b3360405160405180910390a1565b60155481565b6000809054906101000a900473ffffffffffffffffffffffffffffffffffffffff1673ffffffffffffffffffffffffffffffffffffffff163373ffffffffffffffffffffffffffffffffffffffff16141515611bfb57600080fd5b602560009054906101000a900460ff16151515611c1757600080fd5b60008090505b84849050811015611dbf578282828181101515611c3657fe5b90506020020135601d5410151515611c4d57600080fd5b611c6d601d548484848181101515611c6157fe5b90506020020135612eb7565b601d81905550600260009054906101000a900473ffffffffffffffffffffffffffffffffffffffff1673ffffffffffffffffffffffffffffffffffffffff166340c10f198686848181101515611cbf57fe5b9050602002013573ffffffffffffffffffffffffffffffffffffffff168585858181101515611cea57fe5b905060200201356040518363ffffffff167c0100000000000000000000000000000000000000000000000000000000028152600401808373ffffffffffffffffffffffffffffffffffffffff1673ffffffffffffffffffffffffffffffffffffffff16815260200182815260200192505050602060405180830381600087803b158015611d7657600080fd5b505af1158015611d8a573d6000803e3d6000fd5b505050506040513d6020811015611da057600080fd5b8101908080519060200190929190505050508080600101915050611c1d565b5050505050565b60115481565b60075481565b601c5481565b6000809054906101000a900473ffffffffffffffffffffffffffffffffffffffff1673ffffffffffffffffffffffffffffffffffffffff163373ffffffffffffffffffffffffffffffffffffffff16141515611e3357600080fd5b602560009054906101000a900460ff16151515611e4f57600080fd5b60225442111515611e5f57600080fd5b60008090505b84849050811015612007578282828181101515611e7e57fe5b90506020020135601f5410151515611e9557600080fd5b611eb5601f548484848181101515611ea957fe5b90506020020135612eb7565b601f81905550600260009054906101000a900473ffffffffffffffffffffffffffffffffffffffff1673ffffffffffffffffffffffffffffffffffffffff166340c10f198686848181101515611f0757fe5b9050602002013573ffffffffffffffffffffffffffffffffffffffff168585858181101515611f3257fe5b905060200201356040518363ffffffff167c0100000000000000000000000000000000000000000000000000000000028152600401808373ffffffffffffffffffffffffffffffffffffffff1673ffffffffffffffffffffffffffffffffffffffff16815260200182815260200192505050602060405180830381600087803b158015611fbe57600080fd5b505af1158015611fd2573d6000803e3d6000fd5b505050506040513d6020811015611fe857600080fd5b8101908080519060200190929190505050508080600101915050611e65565b5050505050565b60245481565b600060149054906101000a900460ff1681565b601d5481565b601b5481565b6000809054906101000a900473ffffffffffffffffffffffffffffffffffffffff1673ffffffffffffffffffffffffffffffffffffffff163373ffffffffffffffffffffffffffffffffffffffff1614151561208e57600080fd5b826010819055508160118190555080601281905550505050565b6000809054906101000a900473ffffffffffffffffffffffffffffffffffffffff1673ffffffffffffffffffffffffffffffffffffffff163373ffffffffffffffffffffffffffffffffffffffff1614151561210357600080fd5b600060149054906101000a900460ff1615151561211f57600080fd5b6001600060146101000a81548160ff0219169083151502179055507f6985a02210a168e66602d3235cb6db0e70f92b3ba4d376a33c0f3d9434bff62560405160405180910390a1565b601e5481565b6000809054906101000a900473ffffffffffffffffffffffffffffffffffffffff1681565b6000809054906101000a900473ffffffffffffffffffffffffffffffffffffffff1673ffffffffffffffffffffffffffffffffffffffff163373ffffffffffffffffffffffffffffffffffffffff161415156121ee57600080fd5b602560009054906101000a900460ff1615151561220a57600080fd5b4260245410151561221a57600080fd5b60008090505b848490508110156123c257828282818110151561223957fe5b905060200201356021541015151561225057600080fd5b612270602154848484818110151561226457fe5b90506020020135612eb7565b602181905550600260009054906101000a900473ffffffffffffffffffffffffffffffffffffffff1673ffffffffffffffffffffffffffffffffffffffff166340c10f1986868481811015156122c257fe5b9050602002013573ffffffffffffffffffffffffffffffffffffffff1685858581811015156122ed57fe5b905060200201356040518363ffffffff167c0100000000000000000000000000000000000000000000000000000000028152600401808373ffffffffffffffffffffffffffffffffffffffff1673ffffffffffffffffffffffffffffffffffffffff16815260200182815260200192505050602060405180830381600087803b15801561237957600080fd5b505af115801561238d573d6000803e3d6000fd5b505050506040513d60208110156123a357600080fd5b8101908080519060200190929190505050508080600101915050612220565b5050505050565b600e5481565b60185481565b60065481565b600d5481565b60045481565b6000809054906101000a900473ffffffffffffffffffffffffffffffffffffffff1673ffffffffffffffffffffffffffffffffffffffff163373ffffffffffffffffffffffffffffffffffffffff1614151561244257600080fd5b602560009054906101000a900460ff1615151561245e57600080fd5b60008090505b8484905081101561260657828282818110151561247d57fe5b90506020020135601e541015151561249457600080fd5b6124b4601e5484848481811015156124a857fe5b90506020020135612eb7565b601e81905550600260009054906101000a900473ffffffffffffffffffffffffffffffffffffffff1673ffffffffffffffffffffffffffffffffffffffff166340c10f19868684818110151561250657fe5b9050602002013573ffffffffffffffffffffffffffffffffffffffff16858585818110151561253157fe5b905060200201356040518363ffffffff167c0100000000000000000000000000000000000000000000000000000000028152600401808373ffffffffffffffffffffffffffffffffffffffff1673ffffffffffffffffffffffffffffffffffffffff16815260200182815260200192505050602060405180830381600087803b1580156125bd57600080fd5b505af11580156125d1573d6000803e3d6000fd5b505050506040513d60208110156125e757600080fd5b8101908080519060200190929190505050508080600101915050612464565b5050505050565b60085481565b600c5481565b600a5481565b6000809054906101000a900473ffffffffffffffffffffffffffffffffffffffff1673ffffffffffffffffffffffffffffffffffffffff163373ffffffffffffffffffffffffffffffffffffffff1614151561267a57600080fd5b81600581905550806006819055505050565b6000809054906101000a900473ffffffffffffffffffffffffffffffffffffffff1673ffffffffffffffffffffffffffffffffffffffff163373ffffffffffffffffffffffffffffffffffffffff161415156126e757600080fd5b81811115156126f557600080fd5b60008211151561270457600080fd5b81600381905550806004819055505050565b60195481565b60095481565b60175481565b60165481565b60105481565b6000809054906101000a900473ffffffffffffffffffffffffffffffffffffffff1673ffffffffffffffffffffffffffffffffffffffff163373ffffffffffffffffffffffffffffffffffffffff1614151561278f57600080fd5b602560009054906101000a900460ff161515156127ab57600080fd5b426024541015156127bb57600080fd5b60008090505b848490508110156129635782828281811015156127da57fe5b90506020020135602054101515156127f157600080fd5b612811602054848484818110151561280557fe5b90506020020135612eb7565b602081905550600260009054906101000a900473ffffffffffffffffffffffffffffffffffffffff1673ffffffffffffffffffffffffffffffffffffffff166340c10f19868684818110151561286357fe5b9050602002013573ffffffffffffffffffffffffffffffffffffffff16858585818110151561288e57fe5b905060200201356040518363ffffffff167c0100000000000000000000000000000000000000000000000000000000028152600401808373ffffffffffffffffffffffffffffffffffffffff1673ffffffffffffffffffffffffffffffffffffffff16815260200182815260200192505050602060405180830381600087803b15801561291a57600080fd5b505af115801561292e573d6000803e3d6000fd5b505050506040513d602081101561294457600080fd5b81019080805190602001909291905050505080806001019150506127c1565b5050505050565b6000600a544211905090565b60055481565b6000809054906101000a900473ffffffffffffffffffffffffffffffffffffffff1673ffffffffffffffffffffffffffffffffffffffff163373ffffffffffffffffffffffffffffffffffffffff161415156129d757600080fd5b600073ffffffffffffffffffffffffffffffffffffffff168173ffffffffffffffffffffffffffffffffffffffff1614151515612a1357600080fd5b8073ffffffffffffffffffffffffffffffffffffffff166000809054906101000a900473ffffffffffffffffffffffffffffffffffffffff1673ffffffffffffffffffffffffffffffffffffffff167f8be0079c531659141344cd1fd0a4f28419497f9722a3daafe3b4186f6b6457e060405160405180910390a3806000806101000a81548173ffffffffffffffffffffffffffffffffffffffff021916908373ffffffffffffffffffffffffffffffffffffffff16021790555050565b6000612ade600183612dd3565b9050919050565b60008060009054906101000a900473ffffffffffffffffffffffffffffffffffffffff1673ffffffffffffffffffffffffffffffffffffffff163373ffffffffffffffffffffffffffffffffffffffff16141515612b4257600080fd5b612b4a61296a565b1515612b5557600080fd5b602560009054906101000a900460ff16151515612b7157600080fd5b600260009054906101000a900473ffffffffffffffffffffffffffffffffffffffff1673ffffffffffffffffffffffffffffffffffffffff16636d1b229d601c546040518263ffffffff167c010000000000000000000000000000000000000000000000000000000002815260040180828152602001915050602060405180830381600087803b158015612c0457600080fd5b505af1158015612c18573d6000803e3d6000fd5b505050506040513d6020811015612c2e57600080fd5b810190808051906020019092919050505050612c4e601a54601d54612eb7565b601a819055506000601b819055506000601c819055506000601d819055506001602560006101000a81548160ff0219169083151502179055506001905090565b600260009054906101000a900473ffffffffffffffffffffffffffffffffffffffff1681565b60125481565b6000809054906101000a900473ffffffffffffffffffffffffffffffffffffffff1673ffffffffffffffffffffffffffffffffffffffff163373ffffffffffffffffffffffffffffffffffffffff16141515612d1557600080fd5b60008090505b82829050811015612d6857612d5b60018484848181101515612d3957fe5b9050602002013573ffffffffffffffffffffffffffffffffffffffff16612f2e565b8080600101915050612d1b565b507f0bc9b7c80c26b94e46d927660569369691b215ec862ba14c9f9ecec334edfe4f828260405180806020018281038252848482818152602001925060200280828437600081840152601f19601f820116905080830192505050935050505060405180910390a15050565b60008260000160008373ffffffffffffffffffffffffffffffffffffffff1673ffffffffffffffffffffffffffffffffffffffff16815260200190815260200160002060009054906101000a900460ff16905092915050565b6000806007544210158015612e435750600a544211155b90506000803414159050818015612e575750805b9250505090565b600080831415612e715760009050612e93565b60008284029050828482811515612e8457fe5b04141515612e8e57fe5b809150505b92915050565b6000808284019050838110151515612ead57fe5b8091505092915050565b6000828211151515612ec557fe5b818303905092915050565b60018260000160008373ffffffffffffffffffffffffffffffffffffffff1673ffffffffffffffffffffffffffffffffffffffff16815260200190815260200160002060006101000a81548160ff0219169083151502179055505050565b60008260000160008373ffffffffffffffffffffffffffffffffffffffff1673ffffffffffffffffffffffffffffffffffffffff16815260200190815260200160002060006101000a81548160ff0219169083151502179055505050565b6000808284811515612f9a57fe5b049050809150509291505056fea165627a7a72305820ad7d9c33527fca7a6c82fe9a35d563a8ef76372ebd23ceeeac8da9adcfb22a8a002960806040526000600360146101000a81548160ff02191690831515021790555033600360006101000a81548173ffffffffffffffffffffffffffffffffffffffff021916908373ffffffffffffffffffffffffffffffffffffffff1602179055506116298061006f6000396000f3fe6080604052600436106100d0576000357c0100000000000000000000000000000000000000000000000000000000900463ffffffff16806305d2035b146100d5578063095ea7b31461010457806318160ddd1461017757806323b872dd146101a257806340c10f191461023557806366188463146102a85780636d1b229d1461031b57806370a082311461036e5780637d64bcb4146103d35780638da5cb5b14610402578063a9059cbb14610459578063d73dd623146104cc578063dd62ed3e1461053f578063f2fde38b146105c4575b600080fd5b3480156100e157600080fd5b506100ea610615565b604051808215151515815260200191505060405180910390f35b34801561011057600080fd5b5061015d6004803603604081101561012757600080fd5b81019080803573ffffffffffffffffffffffffffffffffffffffff16906020019092919080359060200190929190505050610628565b604051808215151515815260200191505060405180910390f35b34801561018357600080fd5b5061018c61071a565b6040518082815260200191505060405180910390f35b3480156101ae57600080fd5b5061021b600480360360608110156101c557600080fd5b81019080803573ffffffffffffffffffffffffffffffffffffffff169060200190929190803573ffffffffffffffffffffffffffffffffffffffff16906020019092919080359060200190929190505050610720565b604051808215151515815260200191505060405180910390f35b34801561024157600080fd5b5061028e6004803603604081101561025857600080fd5b81019080803573ffffffffffffffffffffffffffffffffffffffff16906020019092919080359060200190929190505050610a0c565b604051808215151515815260200191505060405180910390f35b3480156102b457600080fd5b50610301600480360360408110156102cb57600080fd5b81019080803573ffffffffffffffffffffffffffffffffffffffff16906020019092919080359060200190929190505050610bf4565b604051808215151515815260200191505060405180910390f35b34801561032757600080fd5b506103546004803603602081101561033e57600080fd5b8101908080359060200190929190505050610e85565b604051808215151515815260200191505060405180910390f35b34801561037a57600080fd5b506103bd6004803603602081101561039157600080fd5b81019080803573ffffffffffffffffffffffffffffffffffffffff169060200190929190505050610efa565b6040518082815260200191505060405180910390f35b3480156103df57600080fd5b506103e8610f43565b604051808215151515815260200191505060405180910390f35b34801561040e57600080fd5b50610417610fef565b604051808273ffffffffffffffffffffffffffffffffffffffff1673ffffffffffffffffffffffffffffffffffffffff16815260200191505060405180910390f35b34801561046557600080fd5b506104b26004803603604081101561047c57600080fd5b81019080803573ffffffffffffffffffffffffffffffffffffffff16906020019092919080359060200190929190505050611015565b604051808215151515815260200191505060405180910390f35b3480156104d857600080fd5b50610525600480360360408110156104ef57600080fd5b81019080803573ffffffffffffffffffffffffffffffffffffffff169060200190929190803590602001909291905050506111eb565b604051808215151515815260200191505060405180910390f35b34801561054b57600080fd5b506105ae6004803603604081101561056257600080fd5b81019080803573ffffffffffffffffffffffffffffffffffffffff169060200190929190803573ffffffffffffffffffffffffffffffffffffffff1690602001909291905050506113e7565b6040518082815260200191505060405180910390f35b3480156105d057600080fd5b50610613600480360360208110156105e757600080fd5b81019080803573ffffffffffffffffffffffffffffffffffffffff16906020019092919050505061146e565b005b600360149054906101000a900460ff1681565b600081600260003373ffffffffffffffffffffffffffffffffffffffff1673ffffffffffffffffffffffffffffffffffffffff16815260200190815260200160002060008573ffffffffffffffffffffffffffffffffffffffff1673ffffffffffffffffffffffffffffffffffffffff168152602001908152602001600020819055508273ffffffffffffffffffffffffffffffffffffffff163373ffffffffffffffffffffffffffffffffffffffff167f8c5be1e5ebec7d5bd14f71427d1e84f3dd0314c0f7b2291e5b200ac8c7c3b925846040518082815260200191505060405180910390a36001905092915050565b60005481565b60008073ffffffffffffffffffffffffffffffffffffffff168373ffffffffffffffffffffffffffffffffffffffff161415151561075d57600080fd5b6000600260008673ffffffffffffffffffffffffffffffffffffffff1673ffffffffffffffffffffffffffffffffffffffff16815260200190815260200160002060003373ffffffffffffffffffffffffffffffffffffffff1673ffffffffffffffffffffffffffffffffffffffff16815260200190815260200160002054905061083083600160008873ffffffffffffffffffffffffffffffffffffffff1673ffffffffffffffffffffffffffffffffffffffff168152602001908152602001600020546115c690919063ffffffff16565b600160008773ffffffffffffffffffffffffffffffffffffffff1673ffffffffffffffffffffffffffffffffffffffff168152602001908152602001600020819055506108c583600160008773ffffffffffffffffffffffffffffffffffffffff1673ffffffffffffffffffffffffffffffffffffffff168152602001908152602001600020546115df90919063ffffffff16565b600160008673ffffffffffffffffffffffffffffffffffffffff1673ffffffffffffffffffffffffffffffffffffffff1681526020019081526020016000208190555061091b83826115c690919063ffffffff16565b600260008773ffffffffffffffffffffffffffffffffffffffff1673ffffffffffffffffffffffffffffffffffffffff16815260200190815260200160002060003373ffffffffffffffffffffffffffffffffffffffff1673ffffffffffffffffffffffffffffffffffffffff168152602001908152602001600020819055508373ffffffffffffffffffffffffffffffffffffffff168573ffffffffffffffffffffffffffffffffffffffff167fddf252ad1be2c89b69c2b068fc378daa952ba7f163c4a11628f55a4df523b3ef856040518082815260200191505060405180910390a360019150509392505050565b6000600360009054906101000a900473ffffffffffffffffffffffffffffffffffffffff1673ffffffffffffffffffffffffffffffffffffffff163373ffffffffffffffffffffffffffffffffffffffff16141515610a6a57600080fd5b600360149054906101000a900460ff16151515610a8657600080fd5b610a9b826000546115df90919063ffffffff16565b600081905550610af382600160008673ffffffffffffffffffffffffffffffffffffffff1673ffffffffffffffffffffffffffffffffffffffff168152602001908152602001600020546115df90919063ffffffff16565b600160008573ffffffffffffffffffffffffffffffffffffffff1673ffffffffffffffffffffffffffffffffffffffff168152602001908152602001600020819055508273ffffffffffffffffffffffffffffffffffffffff167f0f6798a560793a54c3bcfe86a93cde1e73087d944c0ea20544137d4121396885836040518082815260200191505060405180910390a28273ffffffffffffffffffffffffffffffffffffffff16600073ffffffffffffffffffffffffffffffffffffffff167fddf252ad1be2c89b69c2b068fc378daa952ba7f163c4a11628f55a4df523b3ef846040518082815260200191505060405180910390a36001905092915050565b600080600260003373ffffffffffffffffffffffffffffffffffffffff1673ffffffffffffffffffffffffffffffffffffffff16815260200190815260200160002060008573ffffffffffffffffffffffffffffffffffffffff1673ffffffffffffffffffffffffffffffffffffffff16815260200190815260200160002054905080831115610d05576000600260003373ffffffffffffffffffffffffffffffffffffffff1673ffffffffffffffffffffffffffffffffffffffff16815260200190815260200160002060008673ffffffffffffffffffffffffffffffffffffffff1673ffffffffffffffffffffffffffffffffffffffff16815260200190815260200160002081905550610d99565b610d1883826115c690919063ffffffff16565b600260003373ffffffffffffffffffffffffffffffffffffffff1673ffffffffffffffffffffffffffffffffffffffff16815260200190815260200160002060008673ffffffffffffffffffffffffffffffffffffffff1673ffffffffffffffffffffffffffffffffffffffff168152602001908152602001600020819055505b8373ffffffffffffffffffffffffffffffffffffffff163373ffffffffffffffffffffffffffffffffffffffff167f8c5be1e5ebec7d5bd14f71427d1e84f3dd0314c0f7b2291e5b200ac8c7c3b925600260003373ffffffffffffffffffffffffffffffffffffffff1673ffffffffffffffffffffffffffffffffffffffff16815260200190815260200160002060008873ffffffffffffffffffffffffffffffffffffffff1673ffffffffffffffffffffffffffffffffffffffff168152602001908152602001600020546040518082815260200191505060405180910390a3600191505092915050565b6000600360009054906101000a900473ffffffffffffffffffffffffffffffffffffffff1673ffffffffffffffffffffffffffffffffffffffff163373ffffffffffffffffffffffffffffffffffffffff16141515610ee357600080fd5b610eef600054836115c6565b600081905550919050565b6000600160008373ffffffffffffffffffffffffffffffffffffffff1673ffffffffffffffffffffffffffffffffffffffff168152602001908152602001600020549050919050565b6000600360009054906101000a900473ffffffffffffffffffffffffffffffffffffffff1673ffffffffffffffffffffffffffffffffffffffff163373ffffffffffffffffffffffffffffffffffffffff16141515610fa157600080fd5b6001600360146101000a81548160ff0219169083151502179055507fae5184fba832cb2b1f702aca6117b8d265eaf03ad33eb133f19dde0f5920fa0860405160405180910390a16001905090565b600360009054906101000a900473ffffffffffffffffffffffffffffffffffffffff1681565b60008073ffffffffffffffffffffffffffffffffffffffff168373ffffffffffffffffffffffffffffffffffffffff161415151561105257600080fd5b6110a482600160003373ffffffffffffffffffffffffffffffffffffffff1673ffffffffffffffffffffffffffffffffffffffff168152602001908152602001600020546115c690919063ffffffff16565b600160003373ffffffffffffffffffffffffffffffffffffffff1673ffffffffffffffffffffffffffffffffffffffff1681526020019081526020016000208190555061113982600160008673ffffffffffffffffffffffffffffffffffffffff1673ffffffffffffffffffffffffffffffffffffffff168152602001908152602001600020546115df90919063ffffffff16565b600160008573ffffffffffffffffffffffffffffffffffffffff1673ffffffffffffffffffffffffffffffffffffffff168152602001908152602001600020819055508273ffffffffffffffffffffffffffffffffffffffff163373ffffffffffffffffffffffffffffffffffffffff167fddf252ad1be2c89b69c2b068fc378daa952ba7f163c4a11628f55a4df523b3ef846040518082815260200191505060405180910390a36001905092915050565b600061127c82600260003373ffffffffffffffffffffffffffffffffffffffff1673ffffffffffffffffffffffffffffffffffffffff16815260200190815260200160002060008673ffffffffffffffffffffffffffffffffffffffff1673ffffffffffffffffffffffffffffffffffffffff168152602001908152602001600020546115df90919063ffffffff16565b600260003373ffffffffffffffffffffffffffffffffffffffff1673ffffffffffffffffffffffffffffffffffffffff16815260200190815260200160002060008573ffffffffffffffffffffffffffffffffffffffff1673ffffffffffffffffffffffffffffffffffffffff168152602001908152602001600020819055508273ffffffffffffffffffffffffffffffffffffffff163373ffffffffffffffffffffffffffffffffffffffff167f8c5be1e5ebec7d5bd14f71427d1e84f3dd0314c0f7b2291e5b200ac8c7c3b925600260003373ffffffffffffffffffffffffffffffffffffffff1673ffffffffffffffffffffffffffffffffffffffff16815260200190815260200160002060008773ffffffffffffffffffffffffffffffffffffffff1673ffffffffffffffffffffffffffffffffffffffff168152602001908152602001600020546040518082815260200191505060405180910390a36001905092915050565b6000600260008473ffffffffffffffffffffffffffffffffffffffff1673ffffffffffffffffffffffffffffffffffffffff16815260200190815260200160002060008373ffffffffffffffffffffffffffffffffffffffff1673ffffffffffffffffffffffffffffffffffffffff16815260200190815260200160002054905092915050565b600360009054906101000a900473ffffffffffffffffffffffffffffffffffffffff1673ffffffffffffffffffffffffffffffffffffffff163373ffffffffffffffffffffffffffffffffffffffff161415156114ca57600080fd5b600073ffffffffffffffffffffffffffffffffffffffff168173ffffffffffffffffffffffffffffffffffffffff161415151561150657600080fd5b8073ffffffffffffffffffffffffffffffffffffffff16600360009054906101000a900473ffffffffffffffffffffffffffffffffffffffff1673ffffffffffffffffffffffffffffffffffffffff167f8be0079c531659141344cd1fd0a4f28419497f9722a3daafe3b4186f6b6457e060405160405180910390a380600360006101000a81548173ffffffffffffffffffffffffffffffffffffffff021916908373ffffffffffffffffffffffffffffffffffffffff16021790555050565b60008282111515156115d457fe5b818303905092915050565b60008082840190508381101515156115f357fe5b809150509291505056fea165627a7a723058208ff7fbda1f7480f372a42c486aa1a72630f4873c2d0eebeb0bb2234ce8802f790029",
  "source": "pragma solidity ^0.5.0;\n\nimport '../token/MintableToken.sol';\nimport '../math/SafeMath.sol';\nimport \"../lifecycle/Pausable.sol\";\nimport \"../whitelist/whitelisted.sol\";\n\ncontract Crowdsale is Ownable, Pausable, Whitelisted {\n  using SafeMath for uint256;\n  MintableToken public token;\n  uint256 public minPurchase;\n  uint256 public maxPurchase;\n  uint256 public investorStartTime;\n  uint256 public investorEndTime;\n  uint256 public preStartTime;\n  uint256 public preEndTime;\n  uint256 public ICOstartTime;\n  uint256 public ICOEndTime;\n  uint256 public preICOBonus;\n  uint256 public firstWeekBonus;\n  uint256 public secondWeekBonus;\n  uint256 public thirdWeekBonus;\n  uint256 public forthWeekBonus;\n  uint256 public flashSaleStartTime;\n  uint256 public flashSaleEndTime;\n  uint256 public flashSaleBonus;\n  address internal wallet;\n  uint256 public rate;\n  uint256 public weiRaised;\n  uint256 public weekOne;\n  uint256 public weekTwo;\n  uint256 public weekThree;\n  uint256 public weekForth;\n  uint256 public totalSupply = 2500000000E18;\n  uint256 public preicoSupply = SafeMath.mul(SafeMath.div(totalSupply,100),30);\n  uint256 public icoSupply = SafeMath.mul(SafeMath.div(totalSupply,100),30);\n  uint256 public publicSupply = SafeMath.add(preicoSupply,icoSupply);\n  uint256 public bountySupply = SafeMath.mul(SafeMath.div(totalSupply,100),5);\n  uint256 public teamSupply = SafeMath.mul(SafeMath.div(totalSupply,100),20);\n  uint256 public reserveSupply = SafeMath.mul(SafeMath.div(totalSupply,100),5);\n  uint256 public partnershipsSupply = SafeMath.mul(SafeMath.div(totalSupply,100),10);\n  uint256 public teamTimeLock;\n  uint256 public partnershipsTimeLock;\n  uint256 public reserveTimeLock;\n  bool public checkBurnTokens;\n  bool public upgradeICOSupply;\n  event TokenPurchase(address indexed purchaser, address indexed beneficiary, uint256 value, uint256 amount);\n  constructor(uint256 _startTime, uint256 _endTime, uint256 _rate, address _wallet) public {\n    require(_startTime >= now);\n    require(_endTime >= _startTime);\n    require(_rate > 0);\n    require(_wallet != address(0x0));\n    token = createTokenContract();\n    investorStartTime = 0;\n    investorEndTime = 0;\n    preStartTime = _startTime;\n    preEndTime = preStartTime + 30 days;\n    ICOstartTime = preEndTime + 5 minutes;\n    ICOEndTime = _endTime;\n    rate = _rate;\n    wallet = _wallet;\n    preICOBonus = SafeMath.div(SafeMath.mul(rate,20),100);\n    firstWeekBonus = SafeMath.div(SafeMath.mul(rate,15),100);\n    secondWeekBonus = SafeMath.div(SafeMath.mul(rate,10),100);\n    thirdWeekBonus = SafeMath.div(SafeMath.mul(rate,5),100);\n    forthWeekBonus = SafeMath.div(SafeMath.mul(rate,1),100);\n    weekOne = SafeMath.add(ICOstartTime, 21 days);\n    weekTwo = SafeMath.add(weekOne, 21 days);\n    weekThree = SafeMath.add(weekTwo, 21 days);\n    weekForth = SafeMath.add(weekThree, 21 days);\n    teamTimeLock = SafeMath.add(ICOEndTime, 180 days);\n    reserveTimeLock = SafeMath.add(ICOEndTime, 180 days);\n    partnershipsTimeLock = SafeMath.add(preStartTime, 3 minutes);\n    flashSaleStartTime = 0;\n    flashSaleEndTime = 0;\n    flashSaleBonus = 0;\n    checkBurnTokens = false;\n    upgradeICOSupply = false;\n    minPurchase = 1 ether;\n    maxPurchase = 50 ether;\n  }\n  function createTokenContract() internal returns (MintableToken) {\n    return new MintableToken();\n  }\n  function () external payable {\n    buyTokens(msg.sender);\n  }\n  function buyTokens(address beneficiary) whenNotPaused onlyWhitelisted  public payable {\n    require(beneficiary != address(0x0));\n    require(validPurchase());\n    uint256 weiAmount = msg.value;\n    uint256 accessTime = now;\n    uint256 tokens = 0;\n    require((weiAmount >= (minPurchase)) && (weiAmount <= (maxPurchase)));\n    if((accessTime >= investorStartTime) && (accessTime < investorEndTime) && (accessTime < preStartTime))\n    {\n      tokens = SafeMath.add(tokens, weiAmount.mul(rate));\n      icoSupply = icoSupply.sub(tokens);\n      publicSupply = publicSupply.sub(tokens);\n    }\n    else if((accessTime >= flashSaleStartTime) && (accessTime < flashSaleEndTime))\n    {\n      tokens = SafeMath.add(tokens, weiAmount.mul(flashSaleBonus));\n      tokens = SafeMath.add(tokens, weiAmount.mul(rate));\n      icoSupply = icoSupply.sub(tokens);\n      publicSupply = publicSupply.sub(tokens);\n    }\n    else if ((accessTime >= preStartTime) && (accessTime < preEndTime))\n    {\n        require(preicoSupply > 0);\n        tokens = SafeMath.add(tokens, weiAmount.mul(preICOBonus));\n        tokens = SafeMath.add(tokens, weiAmount.mul(rate));\n        require(preicoSupply >= tokens);\n        preicoSupply = preicoSupply.sub(tokens);\n        publicSupply = publicSupply.sub(tokens);\n    }\n    else if ((accessTime >= ICOstartTime) && (accessTime <= ICOEndTime))\n    {\n        if (!upgradeICOSupply)\n        {\n          icoSupply = SafeMath.add(icoSupply,preicoSupply);\n          upgradeICOSupply = true;\n        }\n        if (accessTime <= weekOne)\n        {\n          tokens = SafeMath.add(tokens, weiAmount.mul(firstWeekBonus));\n        }\n        else if (( accessTime <= weekTwo ) && (accessTime > weekOne))\n        {\n          tokens = SafeMath.add(tokens, weiAmount.mul(secondWeekBonus));\n        }\n        else if (( accessTime <= weekThree ) && (accessTime > weekTwo))\n        {\n          tokens = SafeMath.add(tokens, weiAmount.mul(thirdWeekBonus));\n        }\n        else if (( accessTime <= weekForth ) && (accessTime > weekThree))\n        {\n          tokens = SafeMath.add(tokens, weiAmount.mul(forthWeekBonus));\n        }\n        tokens = SafeMath.add(tokens, weiAmount.mul(rate));\n        icoSupply = icoSupply.sub(tokens);\n        publicSupply = publicSupply.sub(tokens);\n    }\n    else if ((accessTime > preEndTime) && (accessTime < ICOstartTime))\n    {\n      revert();\n    }\n    weiRaised = weiRaised.add(weiAmount);\n    token.mint(beneficiary, tokens);\n    emit TokenPurchase(msg.sender, beneficiary, weiAmount, tokens);\n  }\n  function validPurchase() internal returns (bool) {\n    bool withinPeriod = now >= preStartTime && now <= ICOEndTime;\n    bool nonZeroPurchase = msg.value != 0;\n    return withinPeriod && nonZeroPurchase;\n  }\n  function hasEnded() public view returns (bool) {\n      return now > ICOEndTime;\n  }\n  function burnToken() onlyOwner external returns (bool) {\n    require(hasEnded());\n    require(!checkBurnTokens);\n    token.burnTokens(icoSupply);\n    totalSupply = SafeMath.sub(totalSupply, publicSupply);\n    preicoSupply = 0;\n    icoSupply = 0;\n    publicSupply = 0;\n    checkBurnTokens = true;\n    return true;\n  }\n  function updateDates(uint256 _preStartTime,uint256 _preEndTime,uint256 _ICOstartTime,uint256 _ICOEndTime) onlyOwner external {\n    if(now < _preStartTime && preStartTime > now)\n    {\n      preStartTime = _preStartTime;\n    }\n    if(_preEndTime > preStartTime)\n    {\n      preEndTime = _preEndTime;\n    }\n    ICOstartTime = _ICOstartTime;\n    ICOEndTime = _ICOEndTime;\n    weekOne = SafeMath.add(ICOstartTime, 21 days);\n    weekTwo = SafeMath.add(weekOne, 21 days);\n    weekThree = SafeMath.add(weekTwo, 21 days);\n    weekForth = SafeMath.add(weekThree, 21 days);\n    teamTimeLock = SafeMath.add(ICOEndTime, 180 days);\n    reserveTimeLock = SafeMath.add(ICOEndTime, 180 days);\n    partnershipsTimeLock = SafeMath.add(preStartTime, 3 minutes);\n  }\n  function flashSale(uint256 _flashSaleStartTime,uint256 _flashSaleEndTime,uint256 _flashSaleBonus) onlyOwner external {\n    flashSaleStartTime = _flashSaleStartTime;\n    flashSaleEndTime = _flashSaleEndTime;\n    flashSaleBonus = _flashSaleBonus;\n  }\n  function updateInvestorDates(uint256 _investorStartTime,uint256 _investorEndTime) onlyOwner external {\n    investorStartTime = _investorStartTime;\n    investorEndTime = _investorEndTime;\n  }\n  function updateMinMaxInvestment(uint256 _minPurchase,uint256 _maxPurchase) onlyOwner external {\n    require(_maxPurchase > _minPurchase);\n    require(_minPurchase > 0);\n    minPurchase = _minPurchase;\n    maxPurchase = _maxPurchase;\n  }\n  function transferFunds(address[] calldata recipients, uint256[] calldata values) onlyOwner external {\n     require(!checkBurnTokens);\n     for (uint256 i = 0; i < recipients.length; i++) {\n        require(publicSupply >= values[i]);\n        publicSupply = SafeMath.sub(publicSupply,values[i]);\n        token.mint(recipients[i], values[i]);\n    }\n  }\n  function bountyFunds(address[] calldata recipients, uint256[] calldata values) onlyOwner external {\n     require(!checkBurnTokens);\n     for (uint256 i = 0; i < recipients.length; i++) {\n        require(bountySupply >= values[i]);\n        bountySupply = SafeMath.sub(bountySupply,values[i]);\n        token.mint(recipients[i], values[i]);\n    }\n  }\n  function transferPartnershipsTokens(address[] calldata recipients, uint256[] calldata values) onlyOwner external {\n    require(!checkBurnTokens);\n    require((reserveTimeLock < now));\n     for (uint256 i = 0; i < recipients.length; i++) {\n        require(partnershipsSupply >= values[i]);\n        partnershipsSupply = SafeMath.sub(partnershipsSupply,values[i]);\n        token.mint(recipients[i], values[i]);\n    }\n  }\n  function transferReserveTokens(address[] calldata recipients, uint256[] calldata values) onlyOwner external {\n    require(!checkBurnTokens);\n    require((reserveTimeLock < now));\n     for (uint256 i = 0; i < recipients.length; i++) {\n        require(reserveSupply >= values[i]);\n        reserveSupply = SafeMath.sub(reserveSupply,values[i]);\n        token.mint(recipients[i], values[i]);\n    }\n  }\n  function transferTeamTokens(address[] calldata recipients, uint256[] calldata values) onlyOwner external {\n    require(!checkBurnTokens);\n    require((now > teamTimeLock));\n     for (uint256 i = 0; i < recipients.length; i++) {\n        require(teamSupply >= values[i]);\n        teamSupply = SafeMath.sub(teamSupply,values[i]);\n        token.mint(recipients[i], values[i]);\n    }\n  }\n  function getTokenAddress() onlyOwner public view returns (address) {\n    return address(token);\n  }\n}",
  "sourcePath": "C:\\Users\\Mohsin Laeeque\\Desktop\\Dayta\\contracts\\crowdsale\\Crowdsale.sol",
  "compiler": {
    "name": "solc",
    "version": "0.5.0+commit.1d4f565a.Emscripten.clang"
  },
  "schemaVersion": "3.0.1",
  "updatedAt": "2019-01-08T10:07:32.588Z",
  "devdoc": {
    "methods": {}
  },
  "userdoc": {
    "methods": {}
  }
}