{
  "contractName": "DaytaCrowdsale",
  "abi": [
    {
      "constant": true,
      "inputs": [],
      "name": "forthWeekBonus",
      "outputs": [
        {
          "name": "",
          "type": "uint256"
        }
      ],
      "payable": false,
      "stateMutability": "view",
      "type": "function"
    },
    {
      "constant": true,
      "inputs": [],
      "name": "reserveSupply",
      "outputs": [
        {
          "name": "",
          "type": "uint256"
        }
      ],
      "payable": false,
      "stateMutability": "view",
      "type": "function"
    },
    {
      "constant": true,
      "inputs": [],
      "name": "preICOBonus",
      "outputs": [
        {
          "name": "",
          "type": "uint256"
        }
      ],
      "payable": false,
      "stateMutability": "view",
      "type": "function"
    },
    {
      "constant": false,
      "inputs": [],
      "name": "finalizeCrowdsale",
      "outputs": [],
      "payable": false,
      "stateMutability": "nonpayable",
      "type": "function"
    },
    {
      "constant": true,
      "inputs": [],
      "name": "checkBurnTokens",
      "outputs": [
        {
          "name": "",
          "type": "bool"
        }
      ],
      "payable": false,
      "stateMutability": "view",
      "type": "function"
    },
    {
      "constant": true,
      "inputs": [],
      "name": "getTokenAddress",
      "outputs": [
        {
          "name": "",
          "type": "address"
        }
      ],
      "payable": false,
      "stateMutability": "view",
      "type": "function"
    },
    {
      "constant": true,
      "inputs": [],
      "name": "partnershipsSupply",
      "outputs": [
        {
          "name": "",
          "type": "uint256"
        }
      ],
      "payable": false,
      "stateMutability": "view",
      "type": "function"
    },
    {
      "constant": false,
      "inputs": [
        {
          "name": "_amount",
          "type": "uint256"
        }
      ],
      "name": "withdrawFunds",
      "outputs": [],
      "payable": false,
      "stateMutability": "nonpayable",
      "type": "function"
    },
    {
      "constant": true,
      "inputs": [],
      "name": "upgradeICOSupply",
      "outputs": [
        {
          "name": "",
          "type": "bool"
        }
      ],
      "payable": false,
      "stateMutability": "view",
      "type": "function"
    },
    {
      "constant": true,
      "inputs": [],
      "name": "totalSupply",
      "outputs": [
        {
          "name": "",
          "type": "uint256"
        }
      ],
      "payable": false,
      "stateMutability": "view",
      "type": "function"
    },
    {
      "constant": false,
      "inputs": [
        {
          "name": "_beneficiary",
          "type": "address[]"
        }
      ],
      "name": "enable",
      "outputs": [],
      "payable": false,
      "stateMutability": "nonpayable",
      "type": "function"
    },
    {
      "constant": true,
      "inputs": [],
      "name": "partnershipsTimeLock",
      "outputs": [
        {
          "name": "",
          "type": "uint256"
        }
      ],
      "payable": false,
      "stateMutability": "view",
      "type": "function"
    },
    {
      "constant": true,
      "inputs": [],
      "name": "rate",
      "outputs": [
        {
          "name": "",
          "type": "uint256"
        }
      ],
      "payable": false,
      "stateMutability": "view",
      "type": "function"
    },
    {
      "constant": true,
      "inputs": [],
      "name": "teamSupply",
      "outputs": [
        {
          "name": "",
          "type": "uint256"
        }
      ],
      "payable": false,
      "stateMutability": "view",
      "type": "function"
    },
    {
      "constant": true,
      "inputs": [],
      "name": "minPurchase",
      "outputs": [
        {
          "name": "",
          "type": "uint256"
        }
      ],
      "payable": false,
      "stateMutability": "view",
      "type": "function"
    },
    {
      "constant": true,
      "inputs": [],
      "name": "cap",
      "outputs": [
        {
          "name": "",
          "type": "uint256"
        }
      ],
      "payable": false,
      "stateMutability": "view",
      "type": "function"
    },
    {
      "constant": true,
      "inputs": [],
      "name": "teamTimeLock",
      "outputs": [
        {
          "name": "",
          "type": "uint256"
        }
      ],
      "payable": false,
      "stateMutability": "view",
      "type": "function"
    },
    {
      "constant": false,
      "inputs": [
        {
          "name": "_preStartTime",
          "type": "uint256"
        },
        {
          "name": "_preEndTime",
          "type": "uint256"
        },
        {
          "name": "_ICOstartTime",
          "type": "uint256"
        },
        {
          "name": "_ICOEndTime",
          "type": "uint256"
        }
      ],
      "name": "updateDates",
      "outputs": [],
      "payable": false,
      "stateMutability": "nonpayable",
      "type": "function"
    },
    {
      "constant": false,
      "inputs": [],
      "name": "unpause",
      "outputs": [],
      "payable": false,
      "stateMutability": "nonpayable",
      "type": "function"
    },
    {
      "constant": true,
      "inputs": [],
      "name": "goal",
      "outputs": [
        {
          "name": "",
          "type": "uint256"
        }
      ],
      "payable": false,
      "stateMutability": "view",
      "type": "function"
    },
    {
      "constant": true,
      "inputs": [],
      "name": "weiRaised",
      "outputs": [
        {
          "name": "",
          "type": "uint256"
        }
      ],
      "payable": false,
      "stateMutability": "view",
      "type": "function"
    },
    {
      "constant": false,
      "inputs": [
        {
          "name": "recipients",
          "type": "address[]"
        },
        {
          "name": "values",
          "type": "uint256[]"
        }
      ],
      "name": "transferFunds",
      "outputs": [],
      "payable": false,
      "stateMutability": "nonpayable",
      "type": "function"
    },
    {
      "constant": true,
      "inputs": [],
      "name": "flashSaleEndTime",
      "outputs": [
        {
          "name": "",
          "type": "uint256"
        }
      ],
      "payable": false,
      "stateMutability": "view",
      "type": "function"
    },
    {
      "constant": true,
      "inputs": [],
      "name": "preStartTime",
      "outputs": [
        {
          "name": "",
          "type": "uint256"
        }
      ],
      "payable": false,
      "stateMutability": "view",
      "type": "function"
    },
    {
      "constant": true,
      "inputs": [],
      "name": "icoSupply",
      "outputs": [
        {
          "name": "",
          "type": "uint256"
        }
      ],
      "payable": false,
      "stateMutability": "view",
      "type": "function"
    },
    {
      "constant": false,
      "inputs": [
        {
          "name": "recipients",
          "type": "address[]"
        },
        {
          "name": "values",
          "type": "uint256[]"
        }
      ],
      "name": "transferTeamTokens",
      "outputs": [],
      "payable": false,
      "stateMutability": "nonpayable",
      "type": "function"
    },
    {
      "constant": true,
      "inputs": [],
      "name": "reserveTimeLock",
      "outputs": [
        {
          "name": "",
          "type": "uint256"
        }
      ],
      "payable": false,
      "stateMutability": "view",
      "type": "function"
    },
    {
      "constant": true,
      "inputs": [],
      "name": "paused",
      "outputs": [
        {
          "name": "",
          "type": "bool"
        }
      ],
      "payable": false,
      "stateMutability": "view",
      "type": "function"
    },
    {
      "constant": true,
      "inputs": [],
      "name": "publicSupply",
      "outputs": [
        {
          "name": "",
          "type": "uint256"
        }
      ],
      "payable": false,
      "stateMutability": "view",
      "type": "function"
    },
    {
      "constant": true,
      "inputs": [],
      "name": "getVaultAddress",
      "outputs": [
        {
          "name": "",
          "type": "address"
        }
      ],
      "payable": false,
      "stateMutability": "view",
      "type": "function"
    },
    {
      "constant": true,
      "inputs": [],
      "name": "preicoSupply",
      "outputs": [
        {
          "name": "",
          "type": "uint256"
        }
      ],
      "payable": false,
      "stateMutability": "view",
      "type": "function"
    },
    {
      "constant": false,
      "inputs": [
        {
          "name": "_flashSaleStartTime",
          "type": "uint256"
        },
        {
          "name": "_flashSaleEndTime",
          "type": "uint256"
        },
        {
          "name": "_flashSaleBonus",
          "type": "uint256"
        }
      ],
      "name": "flashSale",
      "outputs": [],
      "payable": false,
      "stateMutability": "nonpayable",
      "type": "function"
    },
    {
      "constant": true,
      "inputs": [],
      "name": "goalReached",
      "outputs": [
        {
          "name": "",
          "type": "bool"
        }
      ],
      "payable": false,
      "stateMutability": "view",
      "type": "function"
    },
    {
      "constant": false,
      "inputs": [],
      "name": "pause",
      "outputs": [],
      "payable": false,
      "stateMutability": "nonpayable",
      "type": "function"
    },
    {
      "constant": true,
      "inputs": [],
      "name": "bountySupply",
      "outputs": [
        {
          "name": "",
          "type": "uint256"
        }
      ],
      "payable": false,
      "stateMutability": "view",
      "type": "function"
    },
    {
      "constant": true,
      "inputs": [],
      "name": "owner",
      "outputs": [
        {
          "name": "",
          "type": "address"
        }
      ],
      "payable": false,
      "stateMutability": "view",
      "type": "function"
    },
    {
      "constant": false,
      "inputs": [
        {
          "name": "recipients",
          "type": "address[]"
        },
        {
          "name": "values",
          "type": "uint256[]"
        }
      ],
      "name": "transferPartnershipsTokens",
      "outputs": [],
      "payable": false,
      "stateMutability": "nonpayable",
      "type": "function"
    },
    {
      "constant": true,
      "inputs": [],
      "name": "thirdWeekBonus",
      "outputs": [
        {
          "name": "",
          "type": "uint256"
        }
      ],
      "payable": false,
      "stateMutability": "view",
      "type": "function"
    },
    {
      "constant": true,
      "inputs": [],
      "name": "weekThree",
      "outputs": [
        {
          "name": "",
          "type": "uint256"
        }
      ],
      "payable": false,
      "stateMutability": "view",
      "type": "function"
    },
    {
      "constant": true,
      "inputs": [],
      "name": "investorEndTime",
      "outputs": [
        {
          "name": "",
          "type": "uint256"
        }
      ],
      "payable": false,
      "stateMutability": "view",
      "type": "function"
    },
    {
      "constant": true,
      "inputs": [],
      "name": "secondWeekBonus",
      "outputs": [
        {
          "name": "",
          "type": "uint256"
        }
      ],
      "payable": false,
      "stateMutability": "view",
      "type": "function"
    },
    {
      "constant": true,
      "inputs": [],
      "name": "maxPurchase",
      "outputs": [
        {
          "name": "",
          "type": "uint256"
        }
      ],
      "payable": false,
      "stateMutability": "view",
      "type": "function"
    },
    {
      "constant": false,
      "inputs": [
        {
          "name": "recipients",
          "type": "address[]"
        },
        {
          "name": "values",
          "type": "uint256[]"
        }
      ],
      "name": "bountyFunds",
      "outputs": [],
      "payable": false,
      "stateMutability": "nonpayable",
      "type": "function"
    },
    {
      "constant": true,
      "inputs": [],
      "name": "preEndTime",
      "outputs": [
        {
          "name": "",
          "type": "uint256"
        }
      ],
      "payable": false,
      "stateMutability": "view",
      "type": "function"
    },
    {
      "constant": true,
      "inputs": [],
      "name": "firstWeekBonus",
      "outputs": [
        {
          "name": "",
          "type": "uint256"
        }
      ],
      "payable": false,
      "stateMutability": "view",
      "type": "function"
    },
    {
      "constant": true,
      "inputs": [],
      "name": "ICOEndTime",
      "outputs": [
        {
          "name": "",
          "type": "uint256"
        }
      ],
      "payable": false,
      "stateMutability": "view",
      "type": "function"
    },
    {
      "constant": false,
      "inputs": [
        {
          "name": "_investorStartTime",
          "type": "uint256"
        },
        {
          "name": "_investorEndTime",
          "type": "uint256"
        }
      ],
      "name": "updateInvestorDates",
      "outputs": [],
      "payable": false,
      "stateMutability": "nonpayable",
      "type": "function"
    },
    {
      "constant": false,
      "inputs": [
        {
          "name": "_minPurchase",
          "type": "uint256"
        },
        {
          "name": "_maxPurchase",
          "type": "uint256"
        }
      ],
      "name": "updateMinMaxInvestment",
      "outputs": [],
      "payable": false,
      "stateMutability": "nonpayable",
      "type": "function"
    },
    {
      "constant": true,
      "inputs": [],
      "name": "weekForth",
      "outputs": [
        {
          "name": "",
          "type": "uint256"
        }
      ],
      "payable": false,
      "stateMutability": "view",
      "type": "function"
    },
    {
      "constant": false,
      "inputs": [],
      "name": "claimRefund",
      "outputs": [],
      "payable": false,
      "stateMutability": "nonpayable",
      "type": "function"
    },
    {
      "constant": true,
      "inputs": [],
      "name": "ICOstartTime",
      "outputs": [
        {
          "name": "",
          "type": "uint256"
        }
      ],
      "payable": false,
      "stateMutability": "view",
      "type": "function"
    },
    {
      "constant": true,
      "inputs": [],
      "name": "weekTwo",
      "outputs": [
        {
          "name": "",
          "type": "uint256"
        }
      ],
      "payable": false,
      "stateMutability": "view",
      "type": "function"
    },
    {
      "constant": true,
      "inputs": [],
      "name": "weekOne",
      "outputs": [
        {
          "name": "",
          "type": "uint256"
        }
      ],
      "payable": false,
      "stateMutability": "view",
      "type": "function"
    },
    {
      "constant": true,
      "inputs": [],
      "name": "flashSaleStartTime",
      "outputs": [
        {
          "name": "",
          "type": "uint256"
        }
      ],
      "payable": false,
      "stateMutability": "view",
      "type": "function"
    },
    {
      "constant": false,
      "inputs": [
        {
          "name": "recipients",
          "type": "address[]"
        },
        {
          "name": "values",
          "type": "uint256[]"
        }
      ],
      "name": "transferReserveTokens",
      "outputs": [],
      "payable": false,
      "stateMutability": "nonpayable",
      "type": "function"
    },
    {
      "constant": false,
      "inputs": [
        {
          "name": "beneficiary",
          "type": "address"
        }
      ],
      "name": "buyTokens",
      "outputs": [],
      "payable": true,
      "stateMutability": "payable",
      "type": "function"
    },
    {
      "constant": true,
      "inputs": [],
      "name": "hasEnded",
      "outputs": [
        {
          "name": "",
          "type": "bool"
        }
      ],
      "payable": false,
      "stateMutability": "view",
      "type": "function"
    },
    {
      "constant": true,
      "inputs": [],
      "name": "investorStartTime",
      "outputs": [
        {
          "name": "",
          "type": "uint256"
        }
      ],
      "payable": false,
      "stateMutability": "view",
      "type": "function"
    },
    {
      "constant": false,
      "inputs": [
        {
          "name": "newOwner",
          "type": "address"
        }
      ],
      "name": "transferOwnership",
      "outputs": [],
      "payable": false,
      "stateMutability": "nonpayable",
      "type": "function"
    },
    {
      "constant": true,
      "inputs": [
        {
          "name": "_beneficiary",
          "type": "address"
        }
      ],
      "name": "isListed",
      "outputs": [
        {
          "name": "",
          "type": "bool"
        }
      ],
      "payable": false,
      "stateMutability": "view",
      "type": "function"
    },
    {
      "constant": false,
      "inputs": [],
      "name": "burnToken",
      "outputs": [
        {
          "name": "",
          "type": "bool"
        }
      ],
      "payable": false,
      "stateMutability": "nonpayable",
      "type": "function"
    },
    {
      "constant": true,
      "inputs": [],
      "name": "vault",
      "outputs": [
        {
          "name": "",
          "type": "address"
        }
      ],
      "payable": false,
      "stateMutability": "view",
      "type": "function"
    },
    {
      "constant": true,
      "inputs": [],
      "name": "token",
      "outputs": [
        {
          "name": "",
          "type": "address"
        }
      ],
      "payable": false,
      "stateMutability": "view",
      "type": "function"
    },
    {
      "constant": true,
      "inputs": [],
      "name": "flashSaleBonus",
      "outputs": [
        {
          "name": "",
          "type": "uint256"
        }
      ],
      "payable": false,
      "stateMutability": "view",
      "type": "function"
    },
    {
      "constant": false,
      "inputs": [
        {
          "name": "_beneficiary",
          "type": "address[]"
        }
      ],
      "name": "disable",
      "outputs": [],
      "payable": false,
      "stateMutability": "nonpayable",
      "type": "function"
    },
    {
      "inputs": [
        {
          "name": "_startTime",
          "type": "uint256"
        },
        {
          "name": "_endTime",
          "type": "uint256"
        },
        {
          "name": "_rate",
          "type": "uint256"
        },
        {
          "name": "_cap",
          "type": "uint256"
        },
        {
          "name": "_goal",
          "type": "uint256"
        },
        {
          "name": "_wallet",
          "type": "address"
        }
      ],
      "payable": false,
      "stateMutability": "nonpayable",
      "type": "constructor"
    },
    {
      "payable": true,
      "stateMutability": "payable",
      "type": "fallback"
    },
    {
      "anonymous": false,
      "inputs": [],
      "name": "Finalized",
      "type": "event"
    },
    {
      "anonymous": false,
      "inputs": [
        {
          "indexed": true,
          "name": "purchaser",
          "type": "address"
        },
        {
          "indexed": true,
          "name": "beneficiary",
          "type": "address"
        },
        {
          "indexed": false,
          "name": "value",
          "type": "uint256"
        },
        {
          "indexed": false,
          "name": "amount",
          "type": "uint256"
        }
      ],
      "name": "TokenPurchase",
      "type": "event"
    },
    {
      "anonymous": false,
      "inputs": [
        {
          "indexed": false,
          "name": "beneficiary",
          "type": "address[]"
        }
      ],
      "name": "AddressAdded",
      "type": "event"
    },
    {
      "anonymous": false,
      "inputs": [
        {
          "indexed": false,
          "name": "beneficiary",
          "type": "address[]"
        }
      ],
      "name": "AddressRemoved",
      "type": "event"
    },
    {
      "anonymous": false,
      "inputs": [],
      "name": "Pause",
      "type": "event"
    },
    {
      "anonymous": false,
      "inputs": [],
      "name": "Unpause",
      "type": "event"
    },
    {
      "anonymous": false,
      "inputs": [
        {
          "indexed": true,
          "name": "previousOwner",
          "type": "address"
        },
        {
          "indexed": true,
          "name": "newOwner",
          "type": "address"
        }
      ],
      "name": "OwnershipTransferred",
      "type": "event"
    }
  ],
  "bytecode": "0x608060405260008060146101000a81548160ff0219169083151502179055506b0813f3978f89409844000000601a556200007162000055601a5460646200083a6401000000000262003626176401000000009004565b601e620008566401000000000262003324176401000000009004565b601b55620000b76200009b601a5460646200083a6401000000000262003626176401000000009004565b601e620008566401000000000262003324176401000000009004565b601c55620000de601b54601c5462000895640100000000026200335f176401000000009004565b601d556200012462000108601a5460646200083a6401000000000262003626176401000000009004565b6005620008566401000000000262003324176401000000009004565b601e556200016a6200014e601a5460646200083a6401000000000262003626176401000000009004565b6014620008566401000000000262003324176401000000009004565b601f55620001b062000194601a5460646200083a6401000000000262003626176401000000009004565b6005620008566401000000000262003324176401000000009004565b602055620001f6620001da601a5460646200083a6401000000000262003626176401000000009004565b600a620008566401000000000262003324176401000000009004565b6021556000602760006101000a81548160ff0219169083151502179055503480156200022157600080fd5b5060405160c08062006369833981018060405260c08110156200024357600080fd5b81019080805190602001909291908051906020019092919080519060200190929190805190602001909291908051906020019092919080519060200190929190505050818387878785336000806101000a81548173ffffffffffffffffffffffffffffffffffffffff021916908373ffffffffffffffffffffffffffffffffffffffff160217905550620002ed600133620008b464010000000002620034ef176401000000009004565b428410151515620002fd57600080fd5b8383101515156200030d57600080fd5b6000821115156200031d57600080fd5b600073ffffffffffffffffffffffffffffffffffffffff168173ffffffffffffffffffffffffffffffffffffffff16141515156200035a57600080fd5b6200037362000912640100000000026401000000009004565b600260006101000a81548173ffffffffffffffffffffffffffffffffffffffff021916908373ffffffffffffffffffffffffffffffffffffffff160217905550600060058190555060006006819055508360078190555062278d006007540160088190555061012c6008540160098190555082600a819055508160148190555080601360006101000a81548173ffffffffffffffffffffffffffffffffffffffff021916908373ffffffffffffffffffffffffffffffffffffffff160217905550620004776200045b6014546014620008566401000000000262003324176401000000009004565b60646200083a6401000000000262003626176401000000009004565b600b81905550620004c0620004a4601454600f620008566401000000000262003324176401000000009004565b60646200083a6401000000000262003626176401000000009004565b600c8190555062000509620004ed601454600a620008566401000000000262003324176401000000009004565b60646200083a6401000000000262003626176401000000009004565b600d8190555062000552620005366014546005620008566401000000000262003324176401000000009004565b60646200083a6401000000000262003626176401000000009004565b600e819055506200059b6200057f6014546001620008566401000000000262003324176401000000009004565b60646200083a6401000000000262003626176401000000009004565b600f81905550620005c6600954621baf8062000895640100000000026200335f176401000000009004565b601681905550620005f1601654621baf8062000895640100000000026200335f176401000000009004565b6017819055506200061c601754621baf8062000895640100000000026200335f176401000000009004565b60188190555062000647601854621baf8062000895640100000000026200335f176401000000009004565b60198190555062000672600a5462ed4e0062000895640100000000026200335f176401000000009004565b6022819055506200069d600a5462ed4e0062000895640100000000026200335f176401000000009004565b602481905550620006c660075460b462000895640100000000026200335f176401000000009004565b6023819055506000601081905550600060118190555060006012819055506000602560006101000a81548160ff0219169083151502179055506000602560016101000a81548160ff021916908315150217905550670de0b6b3a76400006003819055506802b5e3af16b1880000600481905550505050506000811115156200074d57600080fd5b80602681905550506000811115156200076557600080fd5b601360009054906101000a900473ffffffffffffffffffffffffffffffffffffffff166200079262000941565b808273ffffffffffffffffffffffffffffffffffffffff1673ffffffffffffffffffffffffffffffffffffffff168152602001915050604051809103906000f080158015620007e5573d6000803e3d6000fd5b50602960006101000a81548173ffffffffffffffffffffffffffffffffffffffff021916908373ffffffffffffffffffffffffffffffffffffffff160217905550806028819055505050505050505062000963565b60008082848115156200084957fe5b0490508091505092915050565b6000808314156200086b57600090506200088f565b600082840290508284828115156200087f57fe5b041415156200088a57fe5b809150505b92915050565b6000808284019050838110151515620008aa57fe5b8091505092915050565b60018260000160008373ffffffffffffffffffffffffffffffffffffffff1673ffffffffffffffffffffffffffffffffffffffff16815260200190815260200160002060006101000a81548160ff0219169083151502179055505050565b60006200091e62000952565b604051809103906000f0801580156200093b573d6000803e3d6000fd5b50905090565b604051610aa68062003fe083390190565b6040516118e38062004a8683390190565b61366d80620009736000396000f3fe608060405260043610610301576000357c0100000000000000000000000000000000000000000000000000000000900463ffffffff16806302622cd61461030c57806303d41eb61461033757806306f7ec97146103625780630bf318a31461038d5780630c92b17b146103a457806310fe9ae8146103d357806312484de91461042a578063155dd5ee1461045557806317f5486d1461049057806318160ddd146104bf5780631b75738a146104ea5780632a714268146105705780632c4e722e1461059b5780632cfac6ec146105c657806333b5b62e146105f1578063355274ea1461061c57806338dacaab1461064757806339c65ca6146106725780633f4ba83a146106cb57806340193883146106e25780634042b66f1461070d5780634603ae381461073857806347cb14c5146108135780634dc412101461083e5780634e8127f61461086957806351579da214610894578063598f6dec1461096f5780635c975abb1461099a5780635e84d723146109c957806365cacaa4146109f45780636f1ca0c214610a4b57806378e0a0bd14610a765780637d3d652214610ac55780638456cb5914610af457806386852fd714610b0b5780638da5cb5b14610b36578063907af8ad14610b8d57806391125fb714610c6857806394a94db314610c93578063956fd99114610cbe578063973fe7ef14610ce9578063977b055b14610d145780639a47141614610d3f578063a12c256414610e1a578063a1b258c114610e45578063a242f04914610e70578063a2ec295714610e9b578063ab4b392914610ee0578063ae707b7a14610f25578063b5545a3c14610f50578063c1da392314610f67578063c941f81a14610f92578063d2d6d49214610fbd578063d374af4914610fe8578063e4d6f28914611013578063ec8ac4d8146110ee578063ecb70fb714611132578063f194337414611161578063f2fde38b1461118c578063f794062e146111dd578063faa0a26414611246578063fbfa77cf14611275578063fc0c546a146112cc578063fcdabcbe14611323578063fd30929a1461134e575b61030a336113d4565b005b34801561031857600080fd5b506103216119a1565b6040518082815260200191505060405180910390f35b34801561034357600080fd5b5061034c6119a7565b6040518082815260200191505060405180910390f35b34801561036e57600080fd5b506103776119ad565b6040518082815260200191505060405180910390f35b34801561039957600080fd5b506103a26119b3565b005b3480156103b057600080fd5b506103b9611a47565b604051808215151515815260200191505060405180910390f35b3480156103df57600080fd5b506103e8611a5a565b604051808273ffffffffffffffffffffffffffffffffffffffff1673ffffffffffffffffffffffffffffffffffffffff16815260200191505060405180910390f35b34801561043657600080fd5b5061043f611adf565b6040518082815260200191505060405180910390f35b34801561046157600080fd5b5061048e6004803603602081101561047857600080fd5b8101908080359060200190929190505050611ae5565b005b34801561049c57600080fd5b506104a5611b8a565b604051808215151515815260200191505060405180910390f35b3480156104cb57600080fd5b506104d4611b9d565b6040518082815260200191505060405180910390f35b3480156104f657600080fd5b5061056e6004803603602081101561050d57600080fd5b810190808035906020019064010000000081111561052a57600080fd5b82018360208201111561053c57600080fd5b8035906020019184602083028401116401000000008311171561055e57600080fd5b9091929391929390505050611ba3565b005b34801561057c57600080fd5b50610585611cbc565b6040518082815260200191505060405180910390f35b3480156105a757600080fd5b506105b0611cc2565b6040518082815260200191505060405180910390f35b3480156105d257600080fd5b506105db611cc8565b6040518082815260200191505060405180910390f35b3480156105fd57600080fd5b50610606611cce565b6040518082815260200191505060405180910390f35b34801561062857600080fd5b50610631611cd4565b6040518082815260200191505060405180910390f35b34801561065357600080fd5b5061065c611cda565b6040518082815260200191505060405180910390f35b34801561067e57600080fd5b506106c96004803603608081101561069557600080fd5b8101908080359060200190929190803590602001909291908035906020019092919080359060200190929190505050611ce0565b005b3480156106d757600080fd5b506106e0611e0f565b005b3480156106ee57600080fd5b506106f7611ecd565b6040518082815260200191505060405180910390f35b34801561071957600080fd5b50610722611ed3565b6040518082815260200191505060405180910390f35b34801561074457600080fd5b506108116004803603604081101561075b57600080fd5b810190808035906020019064010000000081111561077857600080fd5b82018360208201111561078a57600080fd5b803590602001918460208302840111640100000000831117156107ac57600080fd5b9091929391929390803590602001906401000000008111156107cd57600080fd5b8201836020820111156107df57600080fd5b8035906020019184602083028401116401000000008311171561080157600080fd5b9091929391929390505050611ed9565b005b34801561081f57600080fd5b506108286120ff565b6040518082815260200191505060405180910390f35b34801561084a57600080fd5b50610853612105565b6040518082815260200191505060405180910390f35b34801561087557600080fd5b5061087e61210b565b6040518082815260200191505060405180910390f35b3480156108a057600080fd5b5061096d600480360360408110156108b757600080fd5b81019080803590602001906401000000008111156108d457600080fd5b8201836020820111156108e657600080fd5b8035906020019184602083028401116401000000008311171561090857600080fd5b90919293919293908035906020019064010000000081111561092957600080fd5b82018360208201111561093b57600080fd5b8035906020019184602083028401116401000000008311171561095d57600080fd5b9091929391929390505050612111565b005b34801561097b57600080fd5b50610984612347565b6040518082815260200191505060405180910390f35b3480156109a657600080fd5b506109af61234d565b604051808215151515815260200191505060405180910390f35b3480156109d557600080fd5b506109de612360565b6040518082815260200191505060405180910390f35b348015610a0057600080fd5b50610a09612366565b604051808273ffffffffffffffffffffffffffffffffffffffff1673ffffffffffffffffffffffffffffffffffffffff16815260200191505060405180910390f35b348015610a5757600080fd5b50610a606123eb565b6040518082815260200191505060405180910390f35b348015610a8257600080fd5b50610ac360048036036060811015610a9957600080fd5b810190808035906020019092919080359060200190929190803590602001909291905050506123f1565b005b348015610ad157600080fd5b50610ada612466565b604051808215151515815260200191505060405180910390f35b348015610b0057600080fd5b50610b09612475565b005b348015610b1757600080fd5b50610b20612535565b6040518082815260200191505060405180910390f35b348015610b4257600080fd5b50610b4b61253b565b604051808273ffffffffffffffffffffffffffffffffffffffff1673ffffffffffffffffffffffffffffffffffffffff16815260200191505060405180910390f35b348015610b9957600080fd5b50610c6660048036036040811015610bb057600080fd5b8101908080359060200190640100000000811115610bcd57600080fd5b820183602082011115610bdf57600080fd5b80359060200191846020830284011164010000000083111715610c0157600080fd5b909192939192939080359060200190640100000000811115610c2257600080fd5b820183602082011115610c3457600080fd5b80359060200191846020830284011164010000000083111715610c5657600080fd5b9091929391929390505050612560565b005b348015610c7457600080fd5b50610c7d612796565b6040518082815260200191505060405180910390f35b348015610c9f57600080fd5b50610ca861279c565b6040518082815260200191505060405180910390f35b348015610cca57600080fd5b50610cd36127a2565b6040518082815260200191505060405180910390f35b348015610cf557600080fd5b50610cfe6127a8565b6040518082815260200191505060405180910390f35b348015610d2057600080fd5b50610d296127ae565b6040518082815260200191505060405180910390f35b348015610d4b57600080fd5b50610e1860048036036040811015610d6257600080fd5b8101908080359060200190640100000000811115610d7f57600080fd5b820183602082011115610d9157600080fd5b80359060200191846020830284011164010000000083111715610db357600080fd5b909192939192939080359060200190640100000000811115610dd457600080fd5b820183602082011115610de657600080fd5b80359060200191846020830284011164010000000083111715610e0857600080fd5b90919293919293905050506127b4565b005b348015610e2657600080fd5b50610e2f6129da565b6040518082815260200191505060405180910390f35b348015610e5157600080fd5b50610e5a6129e0565b6040518082815260200191505060405180910390f35b348015610e7c57600080fd5b50610e856129e6565b6040518082815260200191505060405180910390f35b348015610ea757600080fd5b50610ede60048036036040811015610ebe57600080fd5b8101908080359060200190929190803590602001909291905050506129ec565b005b348015610eec57600080fd5b50610f2360048036036040811015610f0357600080fd5b810190808035906020019092919080359060200190929190505050612a59565b005b348015610f3157600080fd5b50610f3a612ae3565b6040518082815260200191505060405180910390f35b348015610f5c57600080fd5b50610f65612ae9565b005b348015610f7357600080fd5b50610f7c612bb8565b6040518082815260200191505060405180910390f35b348015610f9e57600080fd5b50610fa7612bbe565b6040518082815260200191505060405180910390f35b348015610fc957600080fd5b50610fd2612bc4565b6040518082815260200191505060405180910390f35b348015610ff457600080fd5b50610ffd612bca565b6040518082815260200191505060405180910390f35b34801561101f57600080fd5b506110ec6004803603604081101561103657600080fd5b810190808035906020019064010000000081111561105357600080fd5b82018360208201111561106557600080fd5b8035906020019184602083028401116401000000008311171561108757600080fd5b9091929391929390803590602001906401000000008111156110a857600080fd5b8201836020820111156110ba57600080fd5b803590602001918460208302840111640100000000831117156110dc57600080fd5b9091929391929390505050612bd0565b005b6111306004803603602081101561110457600080fd5b81019080803573ffffffffffffffffffffffffffffffffffffffff1690602001909291905050506113d4565b005b34801561113e57600080fd5b50611147612e06565b604051808215151515815260200191505060405180910390f35b34801561116d57600080fd5b50611176612e12565b6040518082815260200191505060405180910390f35b34801561119857600080fd5b506111db600480360360208110156111af57600080fd5b81019080803573ffffffffffffffffffffffffffffffffffffffff169060200190929190505050612e18565b005b3480156111e957600080fd5b5061122c6004803603602081101561120057600080fd5b81019080803573ffffffffffffffffffffffffffffffffffffffff169060200190929190505050612f6d565b604051808215151515815260200191505060405180910390f35b34801561125257600080fd5b5061125b612f81565b604051808215151515815260200191505060405180910390f35b34801561128157600080fd5b5061128a61312a565b604051808273ffffffffffffffffffffffffffffffffffffffff1673ffffffffffffffffffffffffffffffffffffffff16815260200191505060405180910390f35b3480156112d857600080fd5b506112e1613150565b604051808273ffffffffffffffffffffffffffffffffffffffff1673ffffffffffffffffffffffffffffffffffffffff16815260200191505060405180910390f35b34801561132f57600080fd5b50611338613176565b6040518082815260200191505060405180910390f35b34801561135a57600080fd5b506113d26004803603602081101561137157600080fd5b810190808035906020019064010000000081111561138e57600080fd5b8201836020820111156113a057600080fd5b803590602001918460208302840111640100000000831117156113c257600080fd5b909192939192939050505061317c565b005b600060149054906101000a900460ff161515156113f057600080fd5b600115156113ff600133613295565b151514151561140d57600080fd5b600073ffffffffffffffffffffffffffffffffffffffff168173ffffffffffffffffffffffffffffffffffffffff161415151561144957600080fd5b6114516132ee565b151561145c57600080fd5b600034905060004290506000809050600354831015801561147f57506004548311155b151561148a57600080fd5b600554821015801561149d575060065482105b80156114aa575060075482105b1561150a576114cd816114c86014548661332490919063ffffffff16565b61335f565b90506114e481601c5461337d90919063ffffffff16565b601c819055506114ff81601d5461337d90919063ffffffff16565b601d81905550611812565b601054821015801561151d575060115482105b1561159d576115408161153b6012548661332490919063ffffffff16565b61335f565b90506115608161155b6014548661332490919063ffffffff16565b61335f565b905061157781601c5461337d90919063ffffffff16565b601c8190555061159281601d5461337d90919063ffffffff16565b601d81905550611811565b60075482101580156115b0575060085482105b15611652576000601b541115156115c657600080fd5b6115e4816115df600b548661332490919063ffffffff16565b61335f565b9050611604816115ff6014548661332490919063ffffffff16565b61335f565b905080601b541015151561161757600080fd5b61162c81601b5461337d90919063ffffffff16565b601b8190555061164781601d5461337d90919063ffffffff16565b601d81905550611810565b60095482101580156116665750600a548211155b156117f257602560019054906101000a900460ff1615156116b15761168f601c54601b5461335f565b601c819055506001602560016101000a81548160ff0219169083151502179055505b601654821115156116e1576116da816116d5600c548661332490919063ffffffff16565b61335f565b9050611797565b60175482111580156116f4575060165482115b1561171e5761171781611712600d548661332490919063ffffffff16565b61335f565b9050611796565b6018548211158015611731575060175482115b1561175b576117548161174f600e548661332490919063ffffffff16565b61335f565b9050611795565b601954821115801561176e575060185482115b15611794576117918161178c600f548661332490919063ffffffff16565b61335f565b90505b5b5b5b6117b5816117b06014548661332490919063ffffffff16565b61335f565b90506117cc81601c5461337d90919063ffffffff16565b601c819055506117e781601d5461337d90919063ffffffff16565b601d8190555061180f565b60085482118015611804575060095482105b1561180e57600080fd5b5b5b5b5b6118278360155461335f90919063ffffffff16565b601581905550600260009054906101000a900473ffffffffffffffffffffffffffffffffffffffff1673ffffffffffffffffffffffffffffffffffffffff166340c10f1985836040518363ffffffff167c0100000000000000000000000000000000000000000000000000000000028152600401808373ffffffffffffffffffffffffffffffffffffffff1673ffffffffffffffffffffffffffffffffffffffff16815260200182815260200192505050602060405180830381600087803b1580156118f257600080fd5b505af1158015611906573d6000803e3d6000fd5b505050506040513d602081101561191c57600080fd5b8101908080519060200190929190505050508373ffffffffffffffffffffffffffffffffffffffff163373ffffffffffffffffffffffffffffffffffffffff167f623b3804fa71d67900d064613da8f94b9617215ee90799290593e1745087ad188584604051808381526020018281526020019250505060405180910390a350505050565b600f5481565b60205481565b600b5481565b6000809054906101000a900473ffffffffffffffffffffffffffffffffffffffff1673ffffffffffffffffffffffffffffffffffffffff163373ffffffffffffffffffffffffffffffffffffffff16141515611a0e57600080fd5b602760009054906101000a900460ff16151515611a2a57600080fd5b611a32612e06565b1515611a3d57600080fd5b611a45613396565b565b602560009054906101000a900460ff1681565b60008060009054906101000a900473ffffffffffffffffffffffffffffffffffffffff1673ffffffffffffffffffffffffffffffffffffffff163373ffffffffffffffffffffffffffffffffffffffff16141515611ab757600080fd5b600260009054906101000a900473ffffffffffffffffffffffffffffffffffffffff16905090565b60215481565b6000809054906101000a900473ffffffffffffffffffffffffffffffffffffffff1673ffffffffffffffffffffffffffffffffffffffff163373ffffffffffffffffffffffffffffffffffffffff16141515611b4057600080fd5b3373ffffffffffffffffffffffffffffffffffffffff166108fc829081150290604051600060405180830381858888f19350505050158015611b86573d6000803e3d6000fd5b5050565b602560019054906101000a900460ff1681565b601a5481565b6000809054906101000a900473ffffffffffffffffffffffffffffffffffffffff1673ffffffffffffffffffffffffffffffffffffffff163373ffffffffffffffffffffffffffffffffffffffff16141515611bfe57600080fd5b60008090505b82829050811015611c5157611c4460018484848181101515611c2257fe5b9050602002013573ffffffffffffffffffffffffffffffffffffffff166134ef565b8080600101915050611c04565b507f8eb4b62a1798809c1cb1593bc979eb7708ee201600022292993f69de3397e5c7828260405180806020018281038252848482818152602001925060200280828437600081840152601f19601f820116905080830192505050935050505060405180910390a15050565b60235481565b60145481565b601f5481565b60035481565b60265481565b60225481565b6000809054906101000a900473ffffffffffffffffffffffffffffffffffffffff1673ffffffffffffffffffffffffffffffffffffffff163373ffffffffffffffffffffffffffffffffffffffff16141515611d3b57600080fd5b8342108015611d4b575042600754115b15611d5857836007819055505b600754831115611d6a57826008819055505b8160098190555080600a81905550611d87600954621baf8061335f565b601681905550611d9c601654621baf8061335f565b601781905550611db1601754621baf8061335f565b601881905550611dc6601854621baf8061335f565b601981905550611ddb600a5462ed4e0061335f565b602281905550611df0600a5462ed4e0061335f565b602481905550611e0360075460b461335f565b60238190555050505050565b6000809054906101000a900473ffffffffffffffffffffffffffffffffffffffff1673ffffffffffffffffffffffffffffffffffffffff163373ffffffffffffffffffffffffffffffffffffffff16141515611e6a57600080fd5b600060149054906101000a900460ff161515611e8557600080fd5b60008060146101000a81548160ff0219169083151502179055507f7805862f689e2f13df9f062ff482ad3ad112aca9e0847911ed832e158c525b3360405160405180910390a1565b60285481565b60155481565b6000809054906101000a900473ffffffffffffffffffffffffffffffffffffffff1673ffffffffffffffffffffffffffffffffffffffff163373ffffffffffffffffffffffffffffffffffffffff16141515611f3457600080fd5b602560009054906101000a900460ff16151515611f5057600080fd5b60008090505b848490508110156120f8578282828181101515611f6f57fe5b90506020020135601d5410151515611f8657600080fd5b611fa6601d548484848181101515611f9a57fe5b9050602002013561337d565b601d81905550600260009054906101000a900473ffffffffffffffffffffffffffffffffffffffff1673ffffffffffffffffffffffffffffffffffffffff166340c10f198686848181101515611ff857fe5b9050602002013573ffffffffffffffffffffffffffffffffffffffff16858585818110151561202357fe5b905060200201356040518363ffffffff167c0100000000000000000000000000000000000000000000000000000000028152600401808373ffffffffffffffffffffffffffffffffffffffff1673ffffffffffffffffffffffffffffffffffffffff16815260200182815260200192505050602060405180830381600087803b1580156120af57600080fd5b505af11580156120c3573d6000803e3d6000fd5b505050506040513d60208110156120d957600080fd5b8101908080519060200190929190505050508080600101915050611f56565b5050505050565b60115481565b60075481565b601c5481565b6000809054906101000a900473ffffffffffffffffffffffffffffffffffffffff1673ffffffffffffffffffffffffffffffffffffffff163373ffffffffffffffffffffffffffffffffffffffff1614151561216c57600080fd5b602560009054906101000a900460ff1615151561218857600080fd5b6022544211151561219857600080fd5b60008090505b848490508110156123405782828281811015156121b757fe5b90506020020135601f54101515156121ce57600080fd5b6121ee601f5484848481811015156121e257fe5b9050602002013561337d565b601f81905550600260009054906101000a900473ffffffffffffffffffffffffffffffffffffffff1673ffffffffffffffffffffffffffffffffffffffff166340c10f19868684818110151561224057fe5b9050602002013573ffffffffffffffffffffffffffffffffffffffff16858585818110151561226b57fe5b905060200201356040518363ffffffff167c0100000000000000000000000000000000000000000000000000000000028152600401808373ffffffffffffffffffffffffffffffffffffffff1673ffffffffffffffffffffffffffffffffffffffff16815260200182815260200192505050602060405180830381600087803b1580156122f757600080fd5b505af115801561230b573d6000803e3d6000fd5b505050506040513d602081101561232157600080fd5b810190808051906020019092919050505050808060010191505061219e565b5050505050565b60245481565b600060149054906101000a900460ff1681565b601d5481565b60008060009054906101000a900473ffffffffffffffffffffffffffffffffffffffff1673ffffffffffffffffffffffffffffffffffffffff163373ffffffffffffffffffffffffffffffffffffffff161415156123c357600080fd5b602960009054906101000a900473ffffffffffffffffffffffffffffffffffffffff16905090565b601b5481565b6000809054906101000a900473ffffffffffffffffffffffffffffffffffffffff1673ffffffffffffffffffffffffffffffffffffffff163373ffffffffffffffffffffffffffffffffffffffff1614151561244c57600080fd5b826010819055508160118190555080601281905550505050565b60006028546015541015905090565b6000809054906101000a900473ffffffffffffffffffffffffffffffffffffffff1673ffffffffffffffffffffffffffffffffffffffff163373ffffffffffffffffffffffffffffffffffffffff161415156124d057600080fd5b600060149054906101000a900460ff161515156124ec57600080fd5b6001600060146101000a81548160ff0219169083151502179055507f6985a02210a168e66602d3235cb6db0e70f92b3ba4d376a33c0f3d9434bff62560405160405180910390a1565b601e5481565b6000809054906101000a900473ffffffffffffffffffffffffffffffffffffffff1681565b6000809054906101000a900473ffffffffffffffffffffffffffffffffffffffff1673ffffffffffffffffffffffffffffffffffffffff163373ffffffffffffffffffffffffffffffffffffffff161415156125bb57600080fd5b602560009054906101000a900460ff161515156125d757600080fd5b426024541015156125e757600080fd5b60008090505b8484905081101561278f57828282818110151561260657fe5b905060200201356021541015151561261d57600080fd5b61263d602154848484818110151561263157fe5b9050602002013561337d565b602181905550600260009054906101000a900473ffffffffffffffffffffffffffffffffffffffff1673ffffffffffffffffffffffffffffffffffffffff166340c10f19868684818110151561268f57fe5b9050602002013573ffffffffffffffffffffffffffffffffffffffff1685858581811015156126ba57fe5b905060200201356040518363ffffffff167c0100000000000000000000000000000000000000000000000000000000028152600401808373ffffffffffffffffffffffffffffffffffffffff1673ffffffffffffffffffffffffffffffffffffffff16815260200182815260200192505050602060405180830381600087803b15801561274657600080fd5b505af115801561275a573d6000803e3d6000fd5b505050506040513d602081101561277057600080fd5b81019080805190602001909291905050505080806001019150506125ed565b5050505050565b600e5481565b60185481565b60065481565b600d5481565b60045481565b6000809054906101000a900473ffffffffffffffffffffffffffffffffffffffff1673ffffffffffffffffffffffffffffffffffffffff163373ffffffffffffffffffffffffffffffffffffffff1614151561280f57600080fd5b602560009054906101000a900460ff1615151561282b57600080fd5b60008090505b848490508110156129d357828282818110151561284a57fe5b90506020020135601e541015151561286157600080fd5b612881601e54848484818110151561287557fe5b9050602002013561337d565b601e81905550600260009054906101000a900473ffffffffffffffffffffffffffffffffffffffff1673ffffffffffffffffffffffffffffffffffffffff166340c10f1986868481811015156128d357fe5b9050602002013573ffffffffffffffffffffffffffffffffffffffff1685858581811015156128fe57fe5b905060200201356040518363ffffffff167c0100000000000000000000000000000000000000000000000000000000028152600401808373ffffffffffffffffffffffffffffffffffffffff1673ffffffffffffffffffffffffffffffffffffffff16815260200182815260200192505050602060405180830381600087803b15801561298a57600080fd5b505af115801561299e573d6000803e3d6000fd5b505050506040513d60208110156129b457600080fd5b8101908080519060200190929190505050508080600101915050612831565b5050505050565b60085481565b600c5481565b600a5481565b6000809054906101000a900473ffffffffffffffffffffffffffffffffffffffff1673ffffffffffffffffffffffffffffffffffffffff163373ffffffffffffffffffffffffffffffffffffffff16141515612a4757600080fd5b81600581905550806006819055505050565b6000809054906101000a900473ffffffffffffffffffffffffffffffffffffffff1673ffffffffffffffffffffffffffffffffffffffff163373ffffffffffffffffffffffffffffffffffffffff16141515612ab457600080fd5b8181111515612ac257600080fd5b600082111515612ad157600080fd5b81600381905550806004819055505050565b60195481565b602760009054906101000a900460ff161515612b0457600080fd5b612b0c612466565b151515612b1857600080fd5b602960009054906101000a900473ffffffffffffffffffffffffffffffffffffffff1673ffffffffffffffffffffffffffffffffffffffff1663590e1ae36040518163ffffffff167c0100000000000000000000000000000000000000000000000000000000028152600401600060405180830381600087803b158015612b9e57600080fd5b505af1158015612bb2573d6000803e3d6000fd5b50505050565b60095481565b60175481565b60165481565b60105481565b6000809054906101000a900473ffffffffffffffffffffffffffffffffffffffff1673ffffffffffffffffffffffffffffffffffffffff163373ffffffffffffffffffffffffffffffffffffffff16141515612c2b57600080fd5b602560009054906101000a900460ff16151515612c4757600080fd5b42602454101515612c5757600080fd5b60008090505b84849050811015612dff578282828181101515612c7657fe5b9050602002013560205410151515612c8d57600080fd5b612cad6020548484848181101515612ca157fe5b9050602002013561337d565b602081905550600260009054906101000a900473ffffffffffffffffffffffffffffffffffffffff1673ffffffffffffffffffffffffffffffffffffffff166340c10f198686848181101515612cff57fe5b9050602002013573ffffffffffffffffffffffffffffffffffffffff168585858181101515612d2a57fe5b905060200201356040518363ffffffff167c0100000000000000000000000000000000000000000000000000000000028152600401808373ffffffffffffffffffffffffffffffffffffffff1673ffffffffffffffffffffffffffffffffffffffff16815260200182815260200192505050602060405180830381600087803b158015612db657600080fd5b505af1158015612dca573d6000803e3d6000fd5b505050506040513d6020811015612de057600080fd5b8101908080519060200190929190505050508080600101915050612c5d565b5050505050565b6000600a544211905090565b60055481565b6000809054906101000a900473ffffffffffffffffffffffffffffffffffffffff1673ffffffffffffffffffffffffffffffffffffffff163373ffffffffffffffffffffffffffffffffffffffff16141515612e7357600080fd5b600073ffffffffffffffffffffffffffffffffffffffff168173ffffffffffffffffffffffffffffffffffffffff1614151515612eaf57600080fd5b8073ffffffffffffffffffffffffffffffffffffffff166000809054906101000a900473ffffffffffffffffffffffffffffffffffffffff1673ffffffffffffffffffffffffffffffffffffffff167f8be0079c531659141344cd1fd0a4f28419497f9722a3daafe3b4186f6b6457e060405160405180910390a3806000806101000a81548173ffffffffffffffffffffffffffffffffffffffff021916908373ffffffffffffffffffffffffffffffffffffffff16021790555050565b6000612f7a600183613295565b9050919050565b60008060009054906101000a900473ffffffffffffffffffffffffffffffffffffffff1673ffffffffffffffffffffffffffffffffffffffff163373ffffffffffffffffffffffffffffffffffffffff16141515612fde57600080fd5b612fe6612e06565b1515612ff157600080fd5b602560009054906101000a900460ff1615151561300d57600080fd5b600260009054906101000a900473ffffffffffffffffffffffffffffffffffffffff1673ffffffffffffffffffffffffffffffffffffffff16636d1b229d601c546040518263ffffffff167c010000000000000000000000000000000000000000000000000000000002815260040180828152602001915050602060405180830381600087803b1580156130a057600080fd5b505af11580156130b4573d6000803e3d6000fd5b505050506040513d60208110156130ca57600080fd5b8101908080519060200190929190505050506130ea601a54601d5461337d565b601a819055506000601b819055506000601c819055506000601d819055506001602560006101000a81548160ff0219169083151502179055506001905090565b602960009054906101000a900473ffffffffffffffffffffffffffffffffffffffff1681565b600260009054906101000a900473ffffffffffffffffffffffffffffffffffffffff1681565b60125481565b6000809054906101000a900473ffffffffffffffffffffffffffffffffffffffff1673ffffffffffffffffffffffffffffffffffffffff163373ffffffffffffffffffffffffffffffffffffffff161415156131d757600080fd5b60008090505b8282905081101561322a5761321d600184848481811015156131fb57fe5b9050602002013573ffffffffffffffffffffffffffffffffffffffff1661354d565b80806001019150506131dd565b507f0bc9b7c80c26b94e46d927660569369691b215ec862ba14c9f9ecec334edfe4f828260405180806020018281038252848482818152602001925060200280828437600081840152601f19601f820116905080830192505050935050505060405180910390a15050565b60008260000160008373ffffffffffffffffffffffffffffffffffffffff1673ffffffffffffffffffffffffffffffffffffffff16815260200190815260200160002060009054906101000a900460ff16905092915050565b6000806026546133093460155461335f90919063ffffffff16565b1115905080801561331e575061331d6135ab565b5b91505090565b6000808314156133375760009050613359565b6000828402905082848281151561334a57fe5b0414151561335457fe5b809150505b92915050565b600080828401905083811015151561337357fe5b8091505092915050565b600082821115151561338b57fe5b818303905092915050565b61339e612466565b1561344657602960009054906101000a900473ffffffffffffffffffffffffffffffffffffffff1673ffffffffffffffffffffffffffffffffffffffff166343d726d66040518163ffffffff167c0100000000000000000000000000000000000000000000000000000000028152600401600060405180830381600087803b15801561342957600080fd5b505af115801561343d573d6000803e3d6000fd5b505050506134e5565b602960009054906101000a900473ffffffffffffffffffffffffffffffffffffffff1673ffffffffffffffffffffffffffffffffffffffff16638c52dc416040518163ffffffff167c0100000000000000000000000000000000000000000000000000000000028152600401600060405180830381600087803b1580156134cc57600080fd5b505af11580156134e0573d6000803e3d6000fd5b505050505b6134ed6135dd565b565b60018260000160008373ffffffffffffffffffffffffffffffffffffffff1673ffffffffffffffffffffffffffffffffffffffff16815260200190815260200160002060006101000a81548160ff0219169083151502179055505050565b60008260000160008373ffffffffffffffffffffffffffffffffffffffff1673ffffffffffffffffffffffffffffffffffffffff16815260200190815260200160002060006101000a81548160ff0219169083151502179055505050565b60008060075442101580156135c25750600a544211155b905060008034141590508180156135d65750805b9250505090565b7f6823b073d48d6e3a7d385eeb601452d680e74bb46afe3255a7d778f3a9b1768160405160405180910390a16001602760006101000a81548160ff021916908315150217905550565b600080828481151561363457fe5b049050809150509291505056fea165627a7a72305820624766a0e7bd8182ba26ed4c650a4c0880b0e2ae14f94e368836ba5721df103a0029608060405234801561001057600080fd5b50604051602080610aa68339810180604052602081101561003057600080fd5b8101908080519060200190929190505050336000806101000a81548173ffffffffffffffffffffffffffffffffffffffff021916908373ffffffffffffffffffffffffffffffffffffffff160217905550600073ffffffffffffffffffffffffffffffffffffffff168173ffffffffffffffffffffffffffffffffffffffff16141515156100bd57600080fd5b80600260006101000a81548173ffffffffffffffffffffffffffffffffffffffff021916908373ffffffffffffffffffffffffffffffffffffffff1602179055506000600260146101000a81548160ff0219169083600281111561011d57fe5b021790555050610974806101326000396000f3fe608060405260043610610099576000357c0100000000000000000000000000000000000000000000000000000000900463ffffffff16806343d726d61461009e578063521eb273146100b5578063590e1ae31461010c5780638c52dc41146101235780638da5cb5b1461013a578063c19d93fb14610191578063cb13cddb146101ca578063f2fde38b1461022f578063f340fa0114610280575b600080fd5b3480156100aa57600080fd5b506100b36102c4565b005b3480156100c157600080fd5b506100ca610402565b604051808273ffffffffffffffffffffffffffffffffffffffff1673ffffffffffffffffffffffffffffffffffffffff16815260200191505060405180910390f35b34801561011857600080fd5b50610121610428565b005b34801561012f57600080fd5b5061013861057d565b005b34801561014657600080fd5b5061014f61065e565b604051808273ffffffffffffffffffffffffffffffffffffffff1673ffffffffffffffffffffffffffffffffffffffff16815260200191505060405180910390f35b34801561019d57600080fd5b506101a6610683565b604051808260028111156101b657fe5b60ff16815260200191505060405180910390f35b3480156101d657600080fd5b50610219600480360360208110156101ed57600080fd5b81019080803573ffffffffffffffffffffffffffffffffffffffff169060200190929190505050610696565b6040518082815260200191505060405180910390f35b34801561023b57600080fd5b5061027e6004803603602081101561025257600080fd5b81019080803573ffffffffffffffffffffffffffffffffffffffff1690602001909291905050506106ae565b005b6102c26004803603602081101561029657600080fd5b81019080803573ffffffffffffffffffffffffffffffffffffffff169060200190929190505050610803565b005b6000809054906101000a900473ffffffffffffffffffffffffffffffffffffffff1673ffffffffffffffffffffffffffffffffffffffff163373ffffffffffffffffffffffffffffffffffffffff1614151561031f57600080fd5b6000600281111561032c57fe5b600260149054906101000a900460ff16600281111561034757fe5b14151561035357600080fd5b60028060146101000a81548160ff0219169083600281111561037157fe5b02179055507f1cdde67b72a90f19919ac732a437ac2f7a10fc128d28c2a6e525d89ce5cd9d3a60405160405180910390a13373ffffffffffffffffffffffffffffffffffffffff166108fc3073ffffffffffffffffffffffffffffffffffffffff16319081150290604051600060405180830381858888f193505050501580156103ff573d6000803e3d6000fd5b50565b600260009054906101000a900473ffffffffffffffffffffffffffffffffffffffff1681565b6001600281111561043557fe5b600260149054906101000a900460ff16600281111561045057fe5b14151561045c57600080fd5b6000600160003373ffffffffffffffffffffffffffffffffffffffff1673ffffffffffffffffffffffffffffffffffffffff1681526020019081526020016000205490506000600160003373ffffffffffffffffffffffffffffffffffffffff1673ffffffffffffffffffffffffffffffffffffffff168152602001908152602001600020819055503373ffffffffffffffffffffffffffffffffffffffff166108fc829081150290604051600060405180830381858888f1935050505015801561052b573d6000803e3d6000fd5b503373ffffffffffffffffffffffffffffffffffffffff167fd7dee2702d63ad89917b6a4da9981c90c4d24f8c2bdfd64c604ecae57d8d0651826040518082815260200191505060405180910390a250565b6000809054906101000a900473ffffffffffffffffffffffffffffffffffffffff1673ffffffffffffffffffffffffffffffffffffffff163373ffffffffffffffffffffffffffffffffffffffff161415156105d857600080fd5b600060028111156105e557fe5b600260149054906101000a900460ff16600281111561060057fe5b14151561060c57600080fd5b6001600260146101000a81548160ff0219169083600281111561062b57fe5b02179055507f599d8e5a83cffb867d051598c4d70e805d59802d8081c1c7d6dffc5b6aca2b8960405160405180910390a1565b6000809054906101000a900473ffffffffffffffffffffffffffffffffffffffff1681565b600260149054906101000a900460ff1681565b60016020528060005260406000206000915090505481565b6000809054906101000a900473ffffffffffffffffffffffffffffffffffffffff1673ffffffffffffffffffffffffffffffffffffffff163373ffffffffffffffffffffffffffffffffffffffff1614151561070957600080fd5b600073ffffffffffffffffffffffffffffffffffffffff168173ffffffffffffffffffffffffffffffffffffffff161415151561074557600080fd5b8073ffffffffffffffffffffffffffffffffffffffff166000809054906101000a900473ffffffffffffffffffffffffffffffffffffffff1673ffffffffffffffffffffffffffffffffffffffff167f8be0079c531659141344cd1fd0a4f28419497f9722a3daafe3b4186f6b6457e060405160405180910390a3806000806101000a81548173ffffffffffffffffffffffffffffffffffffffff021916908373ffffffffffffffffffffffffffffffffffffffff16021790555050565b6000809054906101000a900473ffffffffffffffffffffffffffffffffffffffff1673ffffffffffffffffffffffffffffffffffffffff163373ffffffffffffffffffffffffffffffffffffffff1614151561085e57600080fd5b6000600281111561086b57fe5b600260149054906101000a900460ff16600281111561088657fe5b14151561089257600080fd5b6108e434600160008473ffffffffffffffffffffffffffffffffffffffff1673ffffffffffffffffffffffffffffffffffffffff1681526020019081526020016000205461092a90919063ffffffff16565b600160008373ffffffffffffffffffffffffffffffffffffffff1673ffffffffffffffffffffffffffffffffffffffff1681526020019081526020016000208190555050565b600080828401905083811015151561093e57fe5b809150509291505056fea165627a7a72305820123c48da39d949fc62e5d79d1cf0c791688a5d11639b274eff54372dca81e7d4002960806040526000600360146101000a81548160ff0219169083151502179055506b0813f3978f8940984400000060045534801561003b57600080fd5b5033600360006101000a81548173ffffffffffffffffffffffffffffffffffffffff021916908373ffffffffffffffffffffffffffffffffffffffff16021790555060045460008190555061184e806100956000396000f3fe6080604052600436106100fc576000357c0100000000000000000000000000000000000000000000000000000000900463ffffffff16806305d2035b1461010157806306fdde0314610130578063095ea7b3146101c057806318160ddd1461023357806323b872dd1461025e578063313ce567146102f15780633eaaf86b1461032257806340c10f191461034d57806366188463146103c05780636d1b229d1461043357806370a08231146104865780637d64bcb4146104eb5780638da5cb5b1461051a57806395d89b4114610571578063a9059cbb14610601578063d73dd62314610674578063dd62ed3e146106e7578063f2fde38b1461076c575b600080fd5b34801561010d57600080fd5b506101166107bd565b604051808215151515815260200191505060405180910390f35b34801561013c57600080fd5b506101456107d0565b6040518080602001828103825283818151815260200191508051906020019080838360005b8381101561018557808201518184015260208101905061016a565b50505050905090810190601f1680156101b25780820380516001836020036101000a031916815260200191505b509250505060405180910390f35b3480156101cc57600080fd5b50610219600480360360408110156101e357600080fd5b81019080803573ffffffffffffffffffffffffffffffffffffffff16906020019092919080359060200190929190505050610809565b604051808215151515815260200191505060405180910390f35b34801561023f57600080fd5b506102486108fb565b6040518082815260200191505060405180910390f35b34801561026a57600080fd5b506102d76004803603606081101561028157600080fd5b81019080803573ffffffffffffffffffffffffffffffffffffffff169060200190929190803573ffffffffffffffffffffffffffffffffffffffff16906020019092919080359060200190929190505050610901565b604051808215151515815260200191505060405180910390f35b3480156102fd57600080fd5b50610306610bed565b604051808260ff1660ff16815260200191505060405180910390f35b34801561032e57600080fd5b50610337610bf2565b6040518082815260200191505060405180910390f35b34801561035957600080fd5b506103a66004803603604081101561037057600080fd5b81019080803573ffffffffffffffffffffffffffffffffffffffff16906020019092919080359060200190929190505050610bf8565b604051808215151515815260200191505060405180910390f35b3480156103cc57600080fd5b50610419600480360360408110156103e357600080fd5b81019080803573ffffffffffffffffffffffffffffffffffffffff16906020019092919080359060200190929190505050610de0565b604051808215151515815260200191505060405180910390f35b34801561043f57600080fd5b5061046c6004803603602081101561045657600080fd5b8101908080359060200190929190505050611071565b604051808215151515815260200191505060405180910390f35b34801561049257600080fd5b506104d5600480360360208110156104a957600080fd5b81019080803573ffffffffffffffffffffffffffffffffffffffff1690602001909291905050506110e6565b6040518082815260200191505060405180910390f35b3480156104f757600080fd5b5061050061112f565b604051808215151515815260200191505060405180910390f35b34801561052657600080fd5b5061052f6111db565b604051808273ffffffffffffffffffffffffffffffffffffffff1673ffffffffffffffffffffffffffffffffffffffff16815260200191505060405180910390f35b34801561057d57600080fd5b50610586611201565b6040518080602001828103825283818151815260200191508051906020019080838360005b838110156105c65780820151818401526020810190506105ab565b50505050905090810190601f1680156105f35780820380516001836020036101000a031916815260200191505b509250505060405180910390f35b34801561060d57600080fd5b5061065a6004803603604081101561062457600080fd5b81019080803573ffffffffffffffffffffffffffffffffffffffff1690602001909291908035906020019092919050505061123a565b604051808215151515815260200191505060405180910390f35b34801561068057600080fd5b506106cd6004803603604081101561069757600080fd5b81019080803573ffffffffffffffffffffffffffffffffffffffff16906020019092919080359060200190929190505050611410565b604051808215151515815260200191505060405180910390f35b3480156106f357600080fd5b506107566004803603604081101561070a57600080fd5b81019080803573ffffffffffffffffffffffffffffffffffffffff169060200190929190803573ffffffffffffffffffffffffffffffffffffffff16906020019092919050505061160c565b6040518082815260200191505060405180910390f35b34801561077857600080fd5b506107bb6004803603602081101561078f57600080fd5b81019080803573ffffffffffffffffffffffffffffffffffffffff169060200190929190505050611693565b005b600360149054906101000a900460ff1681565b6040805190810160405280600581526020017f444159544100000000000000000000000000000000000000000000000000000081525081565b600081600260003373ffffffffffffffffffffffffffffffffffffffff1673ffffffffffffffffffffffffffffffffffffffff16815260200190815260200160002060008573ffffffffffffffffffffffffffffffffffffffff1673ffffffffffffffffffffffffffffffffffffffff168152602001908152602001600020819055508273ffffffffffffffffffffffffffffffffffffffff163373ffffffffffffffffffffffffffffffffffffffff167f8c5be1e5ebec7d5bd14f71427d1e84f3dd0314c0f7b2291e5b200ac8c7c3b925846040518082815260200191505060405180910390a36001905092915050565b60005481565b60008073ffffffffffffffffffffffffffffffffffffffff168373ffffffffffffffffffffffffffffffffffffffff161415151561093e57600080fd5b6000600260008673ffffffffffffffffffffffffffffffffffffffff1673ffffffffffffffffffffffffffffffffffffffff16815260200190815260200160002060003373ffffffffffffffffffffffffffffffffffffffff1673ffffffffffffffffffffffffffffffffffffffff168152602001908152602001600020549050610a1183600160008873ffffffffffffffffffffffffffffffffffffffff1673ffffffffffffffffffffffffffffffffffffffff168152602001908152602001600020546117eb90919063ffffffff16565b600160008773ffffffffffffffffffffffffffffffffffffffff1673ffffffffffffffffffffffffffffffffffffffff16815260200190815260200160002081905550610aa683600160008773ffffffffffffffffffffffffffffffffffffffff1673ffffffffffffffffffffffffffffffffffffffff1681526020019081526020016000205461180490919063ffffffff16565b600160008673ffffffffffffffffffffffffffffffffffffffff1673ffffffffffffffffffffffffffffffffffffffff16815260200190815260200160002081905550610afc83826117eb90919063ffffffff16565b600260008773ffffffffffffffffffffffffffffffffffffffff1673ffffffffffffffffffffffffffffffffffffffff16815260200190815260200160002060003373ffffffffffffffffffffffffffffffffffffffff1673ffffffffffffffffffffffffffffffffffffffff168152602001908152602001600020819055508373ffffffffffffffffffffffffffffffffffffffff168573ffffffffffffffffffffffffffffffffffffffff167fddf252ad1be2c89b69c2b068fc378daa952ba7f163c4a11628f55a4df523b3ef856040518082815260200191505060405180910390a360019150509392505050565b601281565b60045481565b6000600360009054906101000a900473ffffffffffffffffffffffffffffffffffffffff1673ffffffffffffffffffffffffffffffffffffffff163373ffffffffffffffffffffffffffffffffffffffff16141515610c5657600080fd5b600360149054906101000a900460ff16151515610c7257600080fd5b610c878260005461180490919063ffffffff16565b600081905550610cdf82600160008673ffffffffffffffffffffffffffffffffffffffff1673ffffffffffffffffffffffffffffffffffffffff1681526020019081526020016000205461180490919063ffffffff16565b600160008573ffffffffffffffffffffffffffffffffffffffff1673ffffffffffffffffffffffffffffffffffffffff168152602001908152602001600020819055508273ffffffffffffffffffffffffffffffffffffffff167f0f6798a560793a54c3bcfe86a93cde1e73087d944c0ea20544137d4121396885836040518082815260200191505060405180910390a28273ffffffffffffffffffffffffffffffffffffffff16600073ffffffffffffffffffffffffffffffffffffffff167fddf252ad1be2c89b69c2b068fc378daa952ba7f163c4a11628f55a4df523b3ef846040518082815260200191505060405180910390a36001905092915050565b600080600260003373ffffffffffffffffffffffffffffffffffffffff1673ffffffffffffffffffffffffffffffffffffffff16815260200190815260200160002060008573ffffffffffffffffffffffffffffffffffffffff1673ffffffffffffffffffffffffffffffffffffffff16815260200190815260200160002054905080831115610ef1576000600260003373ffffffffffffffffffffffffffffffffffffffff1673ffffffffffffffffffffffffffffffffffffffff16815260200190815260200160002060008673ffffffffffffffffffffffffffffffffffffffff1673ffffffffffffffffffffffffffffffffffffffff16815260200190815260200160002081905550610f85565b610f0483826117eb90919063ffffffff16565b600260003373ffffffffffffffffffffffffffffffffffffffff1673ffffffffffffffffffffffffffffffffffffffff16815260200190815260200160002060008673ffffffffffffffffffffffffffffffffffffffff1673ffffffffffffffffffffffffffffffffffffffff168152602001908152602001600020819055505b8373ffffffffffffffffffffffffffffffffffffffff163373ffffffffffffffffffffffffffffffffffffffff167f8c5be1e5ebec7d5bd14f71427d1e84f3dd0314c0f7b2291e5b200ac8c7c3b925600260003373ffffffffffffffffffffffffffffffffffffffff1673ffffffffffffffffffffffffffffffffffffffff16815260200190815260200160002060008873ffffffffffffffffffffffffffffffffffffffff1673ffffffffffffffffffffffffffffffffffffffff168152602001908152602001600020546040518082815260200191505060405180910390a3600191505092915050565b6000600360009054906101000a900473ffffffffffffffffffffffffffffffffffffffff1673ffffffffffffffffffffffffffffffffffffffff163373ffffffffffffffffffffffffffffffffffffffff161415156110cf57600080fd5b6110db600054836117eb565b600081905550919050565b6000600160008373ffffffffffffffffffffffffffffffffffffffff1673ffffffffffffffffffffffffffffffffffffffff168152602001908152602001600020549050919050565b6000600360009054906101000a900473ffffffffffffffffffffffffffffffffffffffff1673ffffffffffffffffffffffffffffffffffffffff163373ffffffffffffffffffffffffffffffffffffffff1614151561118d57600080fd5b6001600360146101000a81548160ff0219169083151502179055507fae5184fba832cb2b1f702aca6117b8d265eaf03ad33eb133f19dde0f5920fa0860405160405180910390a16001905090565b600360009054906101000a900473ffffffffffffffffffffffffffffffffffffffff1681565b6040805190810160405280600381526020017f585044000000000000000000000000000000000000000000000000000000000081525081565b60008073ffffffffffffffffffffffffffffffffffffffff168373ffffffffffffffffffffffffffffffffffffffff161415151561127757600080fd5b6112c982600160003373ffffffffffffffffffffffffffffffffffffffff1673ffffffffffffffffffffffffffffffffffffffff168152602001908152602001600020546117eb90919063ffffffff16565b600160003373ffffffffffffffffffffffffffffffffffffffff1673ffffffffffffffffffffffffffffffffffffffff1681526020019081526020016000208190555061135e82600160008673ffffffffffffffffffffffffffffffffffffffff1673ffffffffffffffffffffffffffffffffffffffff1681526020019081526020016000205461180490919063ffffffff16565b600160008573ffffffffffffffffffffffffffffffffffffffff1673ffffffffffffffffffffffffffffffffffffffff168152602001908152602001600020819055508273ffffffffffffffffffffffffffffffffffffffff163373ffffffffffffffffffffffffffffffffffffffff167fddf252ad1be2c89b69c2b068fc378daa952ba7f163c4a11628f55a4df523b3ef846040518082815260200191505060405180910390a36001905092915050565b60006114a182600260003373ffffffffffffffffffffffffffffffffffffffff1673ffffffffffffffffffffffffffffffffffffffff16815260200190815260200160002060008673ffffffffffffffffffffffffffffffffffffffff1673ffffffffffffffffffffffffffffffffffffffff1681526020019081526020016000205461180490919063ffffffff16565b600260003373ffffffffffffffffffffffffffffffffffffffff1673ffffffffffffffffffffffffffffffffffffffff16815260200190815260200160002060008573ffffffffffffffffffffffffffffffffffffffff1673ffffffffffffffffffffffffffffffffffffffff168152602001908152602001600020819055508273ffffffffffffffffffffffffffffffffffffffff163373ffffffffffffffffffffffffffffffffffffffff167f8c5be1e5ebec7d5bd14f71427d1e84f3dd0314c0f7b2291e5b200ac8c7c3b925600260003373ffffffffffffffffffffffffffffffffffffffff1673ffffffffffffffffffffffffffffffffffffffff16815260200190815260200160002060008773ffffffffffffffffffffffffffffffffffffffff1673ffffffffffffffffffffffffffffffffffffffff168152602001908152602001600020546040518082815260200191505060405180910390a36001905092915050565b6000600260008473ffffffffffffffffffffffffffffffffffffffff1673ffffffffffffffffffffffffffffffffffffffff16815260200190815260200160002060008373ffffffffffffffffffffffffffffffffffffffff1673ffffffffffffffffffffffffffffffffffffffff16815260200190815260200160002054905092915050565b600360009054906101000a900473ffffffffffffffffffffffffffffffffffffffff1673ffffffffffffffffffffffffffffffffffffffff163373ffffffffffffffffffffffffffffffffffffffff161415156116ef57600080fd5b600073ffffffffffffffffffffffffffffffffffffffff168173ffffffffffffffffffffffffffffffffffffffff161415151561172b57600080fd5b8073ffffffffffffffffffffffffffffffffffffffff16600360009054906101000a900473ffffffffffffffffffffffffffffffffffffffff1673ffffffffffffffffffffffffffffffffffffffff167f8be0079c531659141344cd1fd0a4f28419497f9722a3daafe3b4186f6b6457e060405160405180910390a380600360006101000a81548173ffffffffffffffffffffffffffffffffffffffff021916908373ffffffffffffffffffffffffffffffffffffffff16021790555050565b60008282111515156117f957fe5b818303905092915050565b600080828401905083811015151561181857fe5b809150509291505056fea165627a7a72305820e2c1bbc343ee32e8173a6afbfc0e644291731949c06cb22f18abd05cace2ad090029",
  "source": "pragma solidity ^0.5.0;\n\nimport \"./crowdsale/Crowdsale.sol\";\nimport './crowdsale/CappedCrowdsale.sol';\nimport \"./crowdsale/RefundableCrowdsale.sol\";\nimport \"./Dayta.sol\";\n\ncontract DaytaCrowdsale is Crowdsale, CappedCrowdsale , RefundableCrowdsale {\n    constructor(uint256 _startTime, uint256 _endTime, uint256 _rate,uint256 _cap, uint256 _goal, address _wallet) public\n    CappedCrowdsale(_cap)\n    FinalizableCrowdsale()\n    RefundableCrowdsale(_goal)\n    Crowdsale(_startTime, _endTime, _rate, _wallet)\n    {\n    }\n    function createTokenContract() internal returns (MintableToken) {\n        return new Dayta();\n    }\n}",
  "sourcePath": "C:/Users/Mohsin Laeeque/Desktop/Dayta/contracts/DaytaCrowdsale.sol",
  "compiler": {
    "name": "solc",
    "version": "0.5.0+commit.1d4f565a.Emscripten.clang"
  },
  "schemaVersion": "3.0.1",
  "updatedAt": "2019-01-08T10:07:32.586Z",
  "devdoc": {
    "methods": {}
  },
  "userdoc": {
    "methods": {}
  }
}