{
  "contractName": "Whitelisted",
  "abi": [
    {
      "constant": true,
      "inputs": [],
      "name": "owner",
      "outputs": [
        {
          "name": "",
          "type": "address"
        }
      ],
      "payable": false,
      "stateMutability": "view",
      "type": "function"
    },
    {
      "constant": false,
      "inputs": [
        {
          "name": "newOwner",
          "type": "address"
        }
      ],
      "name": "transferOwnership",
      "outputs": [],
      "payable": false,
      "stateMutability": "nonpayable",
      "type": "function"
    },
    {
      "inputs": [],
      "payable": false,
      "stateMutability": "nonpayable",
      "type": "constructor"
    },
    {
      "anonymous": false,
      "inputs": [
        {
          "indexed": false,
          "name": "beneficiary",
          "type": "address[]"
        }
      ],
      "name": "AddressAdded",
      "type": "event"
    },
    {
      "anonymous": false,
      "inputs": [
        {
          "indexed": false,
          "name": "beneficiary",
          "type": "address[]"
        }
      ],
      "name": "AddressRemoved",
      "type": "event"
    },
    {
      "anonymous": false,
      "inputs": [
        {
          "indexed": true,
          "name": "previousOwner",
          "type": "address"
        },
        {
          "indexed": true,
          "name": "newOwner",
          "type": "address"
        }
      ],
      "name": "OwnershipTransferred",
      "type": "event"
    },
    {
      "constant": false,
      "inputs": [
        {
          "name": "_beneficiary",
          "type": "address[]"
        }
      ],
      "name": "enable",
      "outputs": [],
      "payable": false,
      "stateMutability": "nonpayable",
      "type": "function"
    },
    {
      "constant": false,
      "inputs": [
        {
          "name": "_beneficiary",
          "type": "address[]"
        }
      ],
      "name": "disable",
      "outputs": [],
      "payable": false,
      "stateMutability": "nonpayable",
      "type": "function"
    },
    {
      "constant": true,
      "inputs": [
        {
          "name": "_beneficiary",
          "type": "address"
        }
      ],
      "name": "isListed",
      "outputs": [
        {
          "name": "",
          "type": "bool"
        }
      ],
      "payable": false,
      "stateMutability": "view",
      "type": "function"
    }
  ],
  "bytecode": "0x608060405234801561001057600080fd5b50336000806101000a81548173ffffffffffffffffffffffffffffffffffffffff021916908373ffffffffffffffffffffffffffffffffffffffff16021790555061006f6001336100746401000000000261064f176401000000009004565b6100d2565b60018260000160008373ffffffffffffffffffffffffffffffffffffffff1673ffffffffffffffffffffffffffffffffffffffff16815260200190815260200160002060006101000a81548160ff0219169083151502179055505050565b610790806100e16000396000f3fe60806040526004361061006d576000357c0100000000000000000000000000000000000000000000000000000000900463ffffffff1680631b75738a146100725780638da5cb5b146100f8578063f2fde38b1461014f578063f794062e146101a0578063fd30929a14610209575b600080fd5b34801561007e57600080fd5b506100f66004803603602081101561009557600080fd5b81019080803590602001906401000000008111156100b257600080fd5b8201836020820111156100c457600080fd5b803590602001918460208302840111640100000000831117156100e657600080fd5b909192939192939050505061028f565b005b34801561010457600080fd5b5061010d6103a8565b604051808273ffffffffffffffffffffffffffffffffffffffff1673ffffffffffffffffffffffffffffffffffffffff16815260200191505060405180910390f35b34801561015b57600080fd5b5061019e6004803603602081101561017257600080fd5b81019080803573ffffffffffffffffffffffffffffffffffffffff1690602001909291905050506103cd565b005b3480156101ac57600080fd5b506101ef600480360360208110156101c357600080fd5b81019080803573ffffffffffffffffffffffffffffffffffffffff169060200190929190505050610522565b604051808215151515815260200191505060405180910390f35b34801561021557600080fd5b5061028d6004803603602081101561022c57600080fd5b810190808035906020019064010000000081111561024957600080fd5b82018360208201111561025b57600080fd5b8035906020019184602083028401116401000000008311171561027d57600080fd5b9091929391929390505050610536565b005b6000809054906101000a900473ffffffffffffffffffffffffffffffffffffffff1673ffffffffffffffffffffffffffffffffffffffff163373ffffffffffffffffffffffffffffffffffffffff161415156102ea57600080fd5b60008090505b8282905081101561033d576103306001848484818110151561030e57fe5b9050602002013573ffffffffffffffffffffffffffffffffffffffff1661064f565b80806001019150506102f0565b507f8eb4b62a1798809c1cb1593bc979eb7708ee201600022292993f69de3397e5c7828260405180806020018281038252848482818152602001925060200280828437600081840152601f19601f820116905080830192505050935050505060405180910390a15050565b6000809054906101000a900473ffffffffffffffffffffffffffffffffffffffff1681565b6000809054906101000a900473ffffffffffffffffffffffffffffffffffffffff1673ffffffffffffffffffffffffffffffffffffffff163373ffffffffffffffffffffffffffffffffffffffff1614151561042857600080fd5b600073ffffffffffffffffffffffffffffffffffffffff168173ffffffffffffffffffffffffffffffffffffffff161415151561046457600080fd5b8073ffffffffffffffffffffffffffffffffffffffff166000809054906101000a900473ffffffffffffffffffffffffffffffffffffffff1673ffffffffffffffffffffffffffffffffffffffff167f8be0079c531659141344cd1fd0a4f28419497f9722a3daafe3b4186f6b6457e060405160405180910390a3806000806101000a81548173ffffffffffffffffffffffffffffffffffffffff021916908373ffffffffffffffffffffffffffffffffffffffff16021790555050565b600061052f6001836106ad565b9050919050565b6000809054906101000a900473ffffffffffffffffffffffffffffffffffffffff1673ffffffffffffffffffffffffffffffffffffffff163373ffffffffffffffffffffffffffffffffffffffff1614151561059157600080fd5b60008090505b828290508110156105e4576105d7600184848481811015156105b557fe5b9050602002013573ffffffffffffffffffffffffffffffffffffffff16610706565b8080600101915050610597565b507f0bc9b7c80c26b94e46d927660569369691b215ec862ba14c9f9ecec334edfe4f828260405180806020018281038252848482818152602001925060200280828437600081840152601f19601f820116905080830192505050935050505060405180910390a15050565b60018260000160008373ffffffffffffffffffffffffffffffffffffffff1673ffffffffffffffffffffffffffffffffffffffff16815260200190815260200160002060006101000a81548160ff0219169083151502179055505050565b60008260000160008373ffffffffffffffffffffffffffffffffffffffff1673ffffffffffffffffffffffffffffffffffffffff16815260200190815260200160002060009054906101000a900460ff16905092915050565b60008260000160008373ffffffffffffffffffffffffffffffffffffffff1673ffffffffffffffffffffffffffffffffffffffff16815260200190815260200160002060006101000a81548160ff021916908315150217905550505056fea165627a7a723058203f8c8a2fb291c57890e3f658b5e7a51a0a0db9bac0aa1754d832ddc04b0c07870029",
  "source": "pragma solidity ^0.5.0;\nimport './Whitelist.sol';\nimport '../ownership/Ownable.sol';\n\ncontract Whitelisted is Ownable {\n  Whitelist.List private _list;\n  modifier onlyWhitelisted() {\n    require(Whitelist.check(_list, msg.sender) == true);\n    _;\n  }\n  event AddressAdded(address[] beneficiary);\n  event AddressRemoved(address[] beneficiary);\n\n  constructor() public {\n    Whitelist.add(_list, msg.sender);\n  }\n  function enable(address[] calldata _beneficiary) external onlyOwner {\n    for (uint256 i = 0; i < _beneficiary.length; i++) {\n      Whitelist.add(_list, _beneficiary[i]);\n    }\n    emit AddressAdded(_beneficiary);\n  }\n  function disable(address[] calldata _beneficiary) external onlyOwner {\n    for (uint256 i = 0; i < _beneficiary.length; i++) {\n      Whitelist.remove(_list, _beneficiary[i]);\n    }\n    emit AddressRemoved(_beneficiary);\n  }\n  function isListed(address _beneficiary) external view returns (bool){\n    return Whitelist.check(_list, _beneficiary);\n  }\n}",
  "sourcePath": "C:\\Users\\Mohsin Laeeque\\Desktop\\Dayta\\contracts\\whitelist\\whitelisted.sol",
  "compiler": {
    "name": "solc",
    "version": "0.5.0+commit.1d4f565a.Emscripten.clang"
  },
  "schemaVersion": "3.0.1",
  "updatedAt": "2019-01-08T10:07:32.605Z",
  "devdoc": {
    "methods": {}
  },
  "userdoc": {
    "methods": {}
  }
}